{
  "_format": "hh-sol-artifact-1",
  "contractName": "CrossChain",
  "sourceName": "contracts/crosschain.sol",
  "abi": [
    {
      "inputs": [
        {
          "internalType": "address",
          "name": "metadata",
          "type": "address"
        },
        {
          "internalType": "address",
          "name": "wCKB",
          "type": "address"
        }
      ],
      "stateMutability": "nonpayable",
      "type": "constructor"
    },
    {
      "anonymous": false,
      "inputs": [
        {
          "indexed": false,
          "internalType": "uint256",
          "name": "minWCKB",
          "type": "uint256"
        }
      ],
      "name": "ChangeMinWCKB",
      "type": "event"
    },
    {
      "anonymous": false,
      "inputs": [
        {
          "indexed": false,
          "internalType": "address",
          "name": "token",
          "type": "address"
        },
        {
          "components": [
            {
              "internalType": "uint256",
              "name": "feeRatio",
              "type": "uint256"
            },
            {
              "internalType": "uint256",
              "name": "threshold",
              "type": "uint256"
            }
          ],
          "indexed": false,
          "internalType": "struct DataType.TokenConfig",
          "name": "config",
          "type": "tuple"
        }
      ],
      "name": "ChangeTokenConfig",
      "type": "event"
    },
    {
      "anonymous": false,
      "inputs": [
        {
          "components": [
            {
              "internalType": "address",
              "name": "to",
              "type": "address"
            },
            {
              "internalType": "address",
              "name": "tokenAddress",
              "type": "address"
            },
            {
              "internalType": "uint256",
              "name": "sUDTAmount",
              "type": "uint256"
            },
            {
              "internalType": "uint256",
              "name": "CKBAmount",
              "type": "uint256"
            },
            {
              "internalType": "bytes32",
              "name": "txHash",
              "type": "bytes32"
            }
          ],
          "indexed": false,
          "internalType": "struct DataType.CKBToAxonRecord[]",
          "name": "records",
          "type": "tuple[]"
        }
      ],
      "name": "CrossFromCKB",
      "type": "event"
    },
    {
      "anonymous": false,
      "inputs": [
        {
          "indexed": false,
          "internalType": "bytes32",
          "name": "currentRecordHash",
          "type": "bytes32"
        },
        {
          "indexed": false,
          "internalType": "bytes32[]",
          "name": "remainRecordsHash",
          "type": "bytes32[]"
        }
      ],
      "name": "CrossLimitRecord",
      "type": "event"
    },
    {
      "anonymous": false,
      "inputs": [
        {
          "indexed": false,
          "internalType": "string",
          "name": "to",
          "type": "string"
        },
        {
          "indexed": false,
          "internalType": "address",
          "name": "token",
          "type": "address"
        },
        {
          "indexed": false,
          "internalType": "uint256",
          "name": "amount",
          "type": "uint256"
        },
        {
          "indexed": false,
          "internalType": "uint256",
          "name": "minWCKBAmount",
          "type": "uint256"
        }
      ],
      "name": "CrossToCKB",
      "type": "event"
    },
    {
      "anonymous": false,
      "inputs": [
        {
          "indexed": false,
          "internalType": "string",
          "name": "to",
          "type": "string"
        },
        {
          "indexed": false,
          "internalType": "address",
          "name": "token",
          "type": "address"
        },
        {
          "indexed": false,
          "internalType": "uint256",
          "name": "amount",
          "type": "uint256"
        },
        {
          "indexed": false,
          "internalType": "uint256",
          "name": "minWCKBAmount",
          "type": "uint256"
        }
      ],
      "name": "CrossToCKBAlert",
      "type": "event"
    },
    {
      "inputs": [],
      "name": "AT_ADDRESS",
      "outputs": [
        {
          "internalType": "address",
          "name": "",
          "type": "address"
        }
      ],
      "stateMutability": "view",
      "type": "function"
    },
    {
      "inputs": [
        {
          "internalType": "address",
          "name": "token",
          "type": "address"
        },
        {
          "internalType": "bytes32",
          "name": "typehash",
          "type": "bytes32"
        }
      ],
      "name": "addMirrorToken",
      "outputs": [],
      "stateMutability": "nonpayable",
      "type": "function"
    },
    {
      "inputs": [
        {
          "internalType": "address",
          "name": "token",
          "type": "address"
        },
        {
          "internalType": "bytes32",
          "name": "typehash",
          "type": "bytes32"
        }
      ],
      "name": "addToken",
      "outputs": [],
      "stateMutability": "nonpayable",
      "type": "function"
    },
    {
      "inputs": [
        {
          "internalType": "address",
          "name": "token",
          "type": "address"
        }
      ],
      "name": "addWhitelist",
      "outputs": [],
      "stateMutability": "nonpayable",
      "type": "function"
    },
    {
      "inputs": [
        {
          "components": [
            {
              "internalType": "address",
              "name": "to",
              "type": "address"
            },
            {
              "internalType": "address",
              "name": "tokenAddress",
              "type": "address"
            },
            {
              "internalType": "uint256",
              "name": "sUDTAmount",
              "type": "uint256"
            },
            {
              "internalType": "uint256",
              "name": "CKBAmount",
              "type": "uint256"
            },
            {
              "internalType": "bytes32",
              "name": "txHash",
              "type": "bytes32"
            }
          ],
          "internalType": "struct DataType.CKBToAxonRecord[]",
          "name": "records",
          "type": "tuple[]"
        },
        {
          "internalType": "uint256",
          "name": "nonce",
          "type": "uint256"
        }
      ],
      "name": "crossFromCKB",
      "outputs": [],
      "stateMutability": "nonpayable",
      "type": "function"
    },
    {
      "inputs": [
        {
          "internalType": "string",
          "name": "to",
          "type": "string"
        },
        {
          "internalType": "address",
          "name": "token",
          "type": "address"
        },
        {
          "internalType": "uint256",
          "name": "amount",
          "type": "uint256"
        }
      ],
      "name": "crossTokenToCKB",
      "outputs": [],
      "stateMutability": "nonpayable",
      "type": "function"
    },
    {
      "inputs": [
        {
          "internalType": "address",
          "name": "token",
          "type": "address"
        },
        {
          "internalType": "uint256",
          "name": "value",
          "type": "uint256"
        }
      ],
      "name": "fee",
      "outputs": [
        {
          "internalType": "uint256",
          "name": "",
          "type": "uint256"
        }
      ],
      "stateMutability": "view",
      "type": "function"
    },
    {
      "inputs": [
        {
          "internalType": "bytes32",
          "name": "typehash",
          "type": "bytes32"
        }
      ],
      "name": "getTokenAddress",
      "outputs": [
        {
          "internalType": "address",
          "name": "",
          "type": "address"
        }
      ],
      "stateMutability": "view",
      "type": "function"
    },
    {
      "inputs": [
        {
          "internalType": "address",
          "name": "token",
          "type": "address"
        }
      ],
      "name": "getTokenConfig",
      "outputs": [
        {
          "components": [
            {
              "internalType": "uint256",
              "name": "feeRatio",
              "type": "uint256"
            },
            {
              "internalType": "uint256",
              "name": "threshold",
              "type": "uint256"
            }
          ],
          "internalType": "struct DataType.TokenConfig",
          "name": "",
          "type": "tuple"
        }
      ],
      "stateMutability": "view",
      "type": "function"
    },
    {
      "inputs": [
        {
          "internalType": "address",
          "name": "token",
          "type": "address"
        }
      ],
      "name": "getTypehash",
      "outputs": [
        {
          "internalType": "bytes32",
          "name": "",
          "type": "bytes32"
        }
      ],
      "stateMutability": "view",
      "type": "function"
    },
    {
      "inputs": [],
      "name": "getWCKBAddress",
      "outputs": [
        {
          "internalType": "address",
          "name": "",
          "type": "address"
        }
      ],
      "stateMutability": "view",
      "type": "function"
    },
    {
      "inputs": [],
      "name": "getWCKBMin",
      "outputs": [
        {
          "internalType": "uint256",
          "name": "",
          "type": "uint256"
        }
      ],
      "stateMutability": "view",
      "type": "function"
    },
    {
      "inputs": [
        {
          "internalType": "address",
          "name": "token",
          "type": "address"
        }
      ],
      "name": "isMirrorToken",
      "outputs": [
        {
          "internalType": "bool",
          "name": "",
          "type": "bool"
        }
      ],
      "stateMutability": "view",
      "type": "function"
    },
    {
      "inputs": [
        {
          "internalType": "address",
          "name": "token",
          "type": "address"
        }
      ],
      "name": "isWhitelist",
      "outputs": [
        {
          "internalType": "bool",
          "name": "",
          "type": "bool"
        }
      ],
      "stateMutability": "view",
      "type": "function"
    },
    {
      "inputs": [],
      "name": "limitTxes",
      "outputs": [
        {
          "components": [
            {
              "internalType": "address",
              "name": "tokenAddress",
              "type": "address"
            },
            {
              "internalType": "uint256",
              "name": "amount",
              "type": "uint256"
            },
            {
              "internalType": "uint256",
              "name": "minWCKBAmount",
              "type": "uint256"
            },
            {
              "internalType": "string",
              "name": "to",
              "type": "string"
            },
            {
              "internalType": "uint256",
              "name": "limitSign",
              "type": "uint256"
            }
          ],
          "internalType": "struct DataType.AxonToCKBRecord[]",
          "name": "",
          "type": "tuple[]"
        },
        {
          "internalType": "bytes32[]",
          "name": "",
          "type": "bytes32[]"
        }
      ],
      "stateMutability": "view",
      "type": "function"
    },
    {
      "inputs": [
        {
          "internalType": "string",
          "name": "to",
          "type": "string"
        }
      ],
      "name": "lockAT",
      "outputs": [],
      "stateMutability": "payable",
      "type": "function"
    },
    {
      "inputs": [],
      "name": "mirrorTokens",
      "outputs": [
        {
          "internalType": "address[]",
          "name": "",
          "type": "address[]"
        }
      ],
      "stateMutability": "view",
      "type": "function"
    },
    {
      "inputs": [
        {
          "components": [
            {
              "internalType": "address",
              "name": "tokenAddress",
              "type": "address"
            },
            {
              "internalType": "uint256",
              "name": "amount",
              "type": "uint256"
            },
            {
              "internalType": "uint256",
              "name": "minWCKBAmount",
              "type": "uint256"
            },
            {
              "internalType": "string",
              "name": "to",
              "type": "string"
            },
            {
              "internalType": "uint256",
              "name": "limitSign",
              "type": "uint256"
            }
          ],
          "internalType": "struct DataType.AxonToCKBRecord",
          "name": "record",
          "type": "tuple"
        }
      ],
      "name": "removeLimitTx",
      "outputs": [],
      "stateMutability": "nonpayable",
      "type": "function"
    },
    {
      "inputs": [
        {
          "internalType": "address",
          "name": "token",
          "type": "address"
        }
      ],
      "name": "removeWhitelist",
      "outputs": [],
      "stateMutability": "nonpayable",
      "type": "function"
    },
    {
      "inputs": [
        {
          "internalType": "address",
          "name": "token",
          "type": "address"
        },
        {
          "components": [
            {
              "internalType": "uint256",
              "name": "feeRatio",
              "type": "uint256"
            },
            {
              "internalType": "uint256",
              "name": "threshold",
              "type": "uint256"
            }
          ],
          "internalType": "struct DataType.TokenConfig",
          "name": "config",
          "type": "tuple"
        }
      ],
      "name": "setTokenConfig",
      "outputs": [],
      "stateMutability": "nonpayable",
      "type": "function"
    },
    {
      "inputs": [
        {
          "internalType": "uint256",
          "name": "amount",
          "type": "uint256"
        }
      ],
      "name": "setWCKBMin",
      "outputs": [],
      "stateMutability": "nonpayable",
      "type": "function"
    },
    {
      "inputs": [],
      "name": "whitelist",
      "outputs": [
        {
          "internalType": "address[]",
          "name": "",
          "type": "address[]"
        }
      ],
      "stateMutability": "view",
      "type": "function"
    }
  ],
  "bytecode": "0x608060405267ffffffffffffffff6000553480156200001d57600080fd5b5060405162003e8e38038062003e8e8339818101604052810190620000439190620003c3565b81600260006101000a81548173ffffffffffffffffffffffffffffffffffffffff021916908373ffffffffffffffffffffffffffffffffffffffff16021790555080600360006101000a81548173ffffffffffffffffffffffffffffffffffffffff021916908373ffffffffffffffffffffffffffffffffffffffff160217905550620000fc600360009054906101000a900473ffffffffffffffffffffffffffffffffffffffff166000801b6200014e60201b60201c565b6200012f600360009054906101000a900473ffffffffffffffffffffffffffffffffffffffff16620001a860201b60201c565b620001466008620001ef60201b62001bde1760201c565b505062000452565b6200016982600b6200020560201b62001bf41790919060201c565b156200017557620001a4565b6200019082600b6200023d60201b62001c241790919060201c565b50620001a382826200027560201b60201c565b5b5050565b620001c38160096200020560201b62001bf41790919060201c565b15620001cf57620001ec565b620001ea8160096200023d60201b62001c241790919060201c565b505b50565b6001816000016000828254019250508190555050565b600062000235836000018373ffffffffffffffffffffffffffffffffffffffff1660001b6200030f60201b60201c565b905092915050565b60006200026d836000018373ffffffffffffffffffffffffffffffffffffffff1660001b6200033260201b60201c565b905092915050565b816011600083815260200190815260200160002060006101000a81548173ffffffffffffffffffffffffffffffffffffffff021916908373ffffffffffffffffffffffffffffffffffffffff16021790555080601060008473ffffffffffffffffffffffffffffffffffffffff1673ffffffffffffffffffffffffffffffffffffffff168152602001908152602001600020819055505050565b600080836001016000848152602001908152602001600020541415905092915050565b60006200034683836200030f60201b60201c565b620003a1578260000182908060018154018082558091505060019003906000526020600020016000909190919091505582600001805490508360010160008481526020019081526020016000208190555060019050620003a6565b600090505b92915050565b600081519050620003bd8162000438565b92915050565b60008060408385031215620003d757600080fd5b6000620003e785828601620003ac565b9250506020620003fa85828601620003ac565b9150509250929050565b6000620004118262000418565b9050919050565b600073ffffffffffffffffffffffffffffffffffffffff82169050919050565b620004438162000404565b81146200044f57600080fd5b50565b613a2c80620004626000396000f3fe6080604052600436106101355760003560e01c8063b12e4410116100ab578063cb67e3b11161006f578063cb67e3b114610413578063cb6ebb9b14610450578063db2b749f1461048d578063e6193b88146104a9578063e6c8283e146104d2578063f80f5dd51461050f57610135565b8063b12e44101461031b578063b8f564f814610358578063bf56fbd014610381578063c0c1eebc146103ad578063c683630d146103d657610135565b80636b23fd20116100fd5780636b23fd201461020d57806378c8cda71461023657806393e59dc11461025f5780639938155d1461028a5780639e6eda18146102b5578063a938d745146102f257610135565b806319e4d9891461013a5780632083d267146101655780633edfdbb014610190578063540f6dec146101b957806365744d24146101e4575b600080fd5b34801561014657600080fd5b5061014f610538565b60405161015c9190613339565b60405180910390f35b34801561017157600080fd5b5061017a610542565b6040516101879190613089565b60405180910390f35b34801561019c57600080fd5b506101b760048036038101906101b2919061289d565b61056c565b005b3480156101c557600080fd5b506101ce610729565b6040516101db9190613089565b60405180910390f35b3480156101f057600080fd5b5061020b60048036038101906102069190612861565b61072e565b005b34801561021957600080fd5b50610234600480360381019061022f9190612915565b61082f565b005b34801561024257600080fd5b5061025d60048036038101906102589190612838565b610a58565b005b34801561026b57600080fd5b50610274610b57565b604051610281919061312d565b60405180910390f35b34801561029657600080fd5b5061029f610b68565b6040516102ac919061312d565b60405180910390f35b3480156102c157600080fd5b506102dc60048036038101906102d791906128d9565b610b79565b6040516102e99190613339565b60405180910390f35b3480156102fe57600080fd5b5061031960048036038101906103149190612ad1565b610bea565b005b34801561032757600080fd5b50610342600480360381019061033d9190612996565b610d20565b60405161034f9190613089565b60405180910390f35b34801561036457600080fd5b5061037f600480360381019061037a9190612a00565b610d5d565b005b34801561038d57600080fd5b5061039661122d565b6040516103a492919061314f565b60405180910390f35b3480156103b957600080fd5b506103d460048036038101906103cf9190612861565b611499565b005b3480156103e257600080fd5b506103fd60048036038101906103f89190612838565b61159a565b60405161040a91906131aa565b60405180910390f35b34801561041f57600080fd5b5061043a60048036038101906104359190612838565b6115b7565b604051610447919061331e565b60405180910390f35b34801561045c57600080fd5b5061047760048036038101906104729190612838565b611624565b60405161048491906131aa565b60405180910390f35b6104a760048036038101906104a291906129bf565b611641565b005b3480156104b557600080fd5b506104d060048036038101906104cb9190612a67565b611899565b005b3480156104de57600080fd5b506104f960048036038101906104f49190612838565b611a96565b60405161050691906131c5565b60405180910390f35b34801561051b57600080fd5b5061053660048036038101906105319190612838565b611adf565b005b6000600454905090565b6000600360009054906101000a900473ffffffffffffffffffffffffffffffffffffffff16905090565b600260009054906101000a900473ffffffffffffffffffffffffffffffffffffffff1673ffffffffffffffffffffffffffffffffffffffff1663331052186105b2611c54565b6040518263ffffffff1660e01b81526004016105ce9190613089565b602060405180830381600087803b1580156105e857600080fd5b505af11580156105fc573d6000803e3d6000fd5b505050506040513d601f19601f82011682018060405250810190610620919061296d565b61065f576040517f08c379a00000000000000000000000000000000000000000000000000000000081526004016106569061329c565b60405180910390fd5b80600f60008473ffffffffffffffffffffffffffffffffffffffff1673ffffffffffffffffffffffffffffffffffffffff16815260200190815260200160002081816106ab9190613969565b9050507ffeaed4526f1ec7bb9e164d6ecd02e154e4312afd2ea0a0c7fb265ecc51517f5182600f60008573ffffffffffffffffffffffffffffffffffffffff1673ffffffffffffffffffffffffffffffffffffffff16815260200190815260200160002060405161071d9291906130db565b60405180910390a15050565b600081565b600260009054906101000a900473ffffffffffffffffffffffffffffffffffffffff1673ffffffffffffffffffffffffffffffffffffffff166333105218610774611c54565b6040518263ffffffff1660e01b81526004016107909190613089565b602060405180830381600087803b1580156107aa57600080fd5b505af11580156107be573d6000803e3d6000fd5b505050506040513d601f19601f820116820180604052508101906107e2919061296d565b610821576040517f08c379a00000000000000000000000000000000000000000000000000000000081526004016108189061329c565b60405180910390fd5b61082b8282611c5c565b5050565b600260009054906101000a900473ffffffffffffffffffffffffffffffffffffffff1673ffffffffffffffffffffffffffffffffffffffff166333105218610875611c54565b6040518263ffffffff1660e01b81526004016108919190613089565b602060405180830381600087803b1580156108ab57600080fd5b505af11580156108bf573d6000803e3d6000fd5b505050506040513d601f19601f820116820180604052508101906108e3919061296d565b610922576040517f08c379a00000000000000000000000000000000000000000000000000000000081526004016109199061329c565b60405180910390fd5b600083839050905060005b81811015610a18576000858583818110610970577f4e487b7100000000000000000000000000000000000000000000000000000000600052603260045260246000fd5b905060a002018036038101906109869190612aa8565b9050600081604001511480156109a0575060008160600151145b156109ab5750610a07565b6109b481611c9e565b600073ffffffffffffffffffffffffffffffffffffffff16816020015173ffffffffffffffffffffffffffffffffffffffff1614156109fb576109f681611d4b565b610a05565b610a0481611db0565b5b505b80610a11906136a1565b905061092d565b507f3e364b471f5bb448a1efc0c6198566fd886f0d3f866c6896c0d0cffebd452e428484604051610a4a929190613186565b60405180910390a150505050565b600260009054906101000a900473ffffffffffffffffffffffffffffffffffffffff1673ffffffffffffffffffffffffffffffffffffffff166333105218610a9e611c54565b6040518263ffffffff1660e01b8152600401610aba9190613089565b602060405180830381600087803b158015610ad457600080fd5b505af1158015610ae8573d6000803e3d6000fd5b505050506040513d601f19601f82011682018060405250810190610b0c919061296d565b610b4b576040517f08c379a0000000000000000000000000000000000000000000000000000000008152600401610b429061329c565b60405180910390fd5b610b5481611ef1565b50565b6060610b636009611f09565b905090565b6060610b74600b611f09565b905090565b600080600f60008573ffffffffffffffffffffffffffffffffffffffff1673ffffffffffffffffffffffffffffffffffffffff168152602001908152602001600020604051806040016040529081600082015481526020016001820154815250509050806000015191505092915050565b600260009054906101000a900473ffffffffffffffffffffffffffffffffffffffff1673ffffffffffffffffffffffffffffffffffffffff166333105218610c30611c54565b6040518263ffffffff1660e01b8152600401610c4c9190613089565b602060405180830381600087803b158015610c6657600080fd5b505af1158015610c7a573d6000803e3d6000fd5b505050506040513d601f19601f82011682018060405250810190610c9e919061296d565b610cdd576040517f08c379a0000000000000000000000000000000000000000000000000000000008152600401610cd49061329c565b60405180910390fd5b806004819055507ff112e5e682173f195e35996c938ef643bba5b7b6a5692f08fe34dd9ff06a1dd5600454604051610d159190613339565b60405180910390a150565b60006011600083815260200190815260200160002060009054906101000a900473ffffffffffffffffffffffffffffffffffffffff169050919050565b81610d678161159a565b610da6576040517f08c379a0000000000000000000000000000000000000000000000000000000008152600401610d9d906132dc565b60405180910390fd5b60008211610de9576040517f08c379a0000000000000000000000000000000000000000000000000000000008152600401610de09061325c565b60405180910390fd5b600454600360009054906101000a900473ffffffffffffffffffffffffffffffffffffffff1673ffffffffffffffffffffffffffffffffffffffff166370a08231610e32611c54565b6040518263ffffffff1660e01b8152600401610e4e9190613089565b60206040518083038186803b158015610e6657600080fd5b505afa158015610e7a573d6000803e3d6000fd5b505050506040513d601f19601f82011682018060405250810190610e9e9190612afa565b11610ede576040517f08c379a0000000000000000000000000000000000000000000000000000000008152600401610ed5906132bc565b60405180910390fd5b610ee783611624565b15610fcc57600360009054906101000a900473ffffffffffffffffffffffffffffffffffffffff1673ffffffffffffffffffffffffffffffffffffffff168373ffffffffffffffffffffffffffffffffffffffff161415610f535760045482610f5091906134fa565b91505b8273ffffffffffffffffffffffffffffffffffffffff16639dc29fac610f77611c54565b846040518363ffffffff1660e01b8152600401610f95929190613104565b600060405180830381600087803b158015610faf57600080fd5b505af1158015610fc3573d6000803e3d6000fd5b50505050611064565b8273ffffffffffffffffffffffffffffffffffffffff166323b872dd610ff0611c54565b30856040518463ffffffff1660e01b8152600401611010939291906130a4565b602060405180830381600087803b15801561102a57600080fd5b505af115801561103e573d6000803e3d6000fd5b505050506040513d601f19601f82011682018060405250810190611062919061296d565b505b6000600454111561112b57600360009054906101000a900473ffffffffffffffffffffffffffffffffffffffff1673ffffffffffffffffffffffffffffffffffffffff166323b872dd6110b5611c54565b306004546040518463ffffffff1660e01b81526004016110d7939291906130a4565b602060405180830381600087803b1580156110f157600080fd5b505af1158015611105573d6000803e3d6000fd5b505050506040513d601f19601f82011682018060405250810190611129919061296d565b505b6111358383611f2a565b156111e757611142612498565b84816060018190525083816000019073ffffffffffffffffffffffffffffffffffffffff16908173ffffffffffffffffffffffffffffffffffffffff1681525050828160200181815250506004548160400181815250506111a281611f7a565b7f94625b0a2dd0ef3e6dabbf52be47159b47cbd3ac7efb51b7a8d363a540c00bbe8585856004546040516111d99493929190613210565b60405180910390a150611227565b7fb3f8ed69a3b49c0460199974be11a2a9852ad17addee34ac9c7274e1164022e084848460045460405161121e9493929190613210565b60405180910390a15b50505050565b606080600061123c6006612094565b67ffffffffffffffff81111561127b577f4e487b7100000000000000000000000000000000000000000000000000000000600052604160045260246000fd5b6040519080825280602002602001820160405280156112b457816020015b6112a1612498565b8152602001906001900390816112995790505b50905060006112c360066120a9565b905060005b815181101561148c57600d600083838151811061130e577f4e487b7100000000000000000000000000000000000000000000000000000000600052603260045260246000fd5b602002602001015181526020019081526020016000206040518060a00160405290816000820160009054906101000a900473ffffffffffffffffffffffffffffffffffffffff1673ffffffffffffffffffffffffffffffffffffffff1673ffffffffffffffffffffffffffffffffffffffff16815260200160018201548152602001600282015481526020016003820180546113a990613624565b80601f01602080910402602001604051908101604052809291908181526020018280546113d590613624565b80156114225780601f106113f757610100808354040283529160200191611422565b820191906000526020600020905b81548152906001019060200180831161140557829003601f168201915b5050505050815260200160048201548152505083828151811061146e577f4e487b7100000000000000000000000000000000000000000000000000000000600052603260045260246000fd5b60200260200101819052508080611484906136a1565b9150506112c8565b5081819350935050509091565b600260009054906101000a900473ffffffffffffffffffffffffffffffffffffffff1673ffffffffffffffffffffffffffffffffffffffff1663331052186114df611c54565b6040518263ffffffff1660e01b81526004016114fb9190613089565b602060405180830381600087803b15801561151557600080fd5b505af1158015611529573d6000803e3d6000fd5b505050506040513d601f19601f8201168201806040525081019061154d919061296d565b61158c576040517f08c379a00000000000000000000000000000000000000000000000000000000081526004016115839061329c565b60405180910390fd5b61159682826120be565b5050565b60006115b0826009611bf490919063ffffffff16565b9050919050565b6115bf6124dd565b600f60008373ffffffffffffffffffffffffffffffffffffffff1673ffffffffffffffffffffffffffffffffffffffff168152602001908152602001600020604051806040016040529081600082015481526020016001820154815250509050919050565b600061163a82600b611bf490919063ffffffff16565b9050919050565b600061164c8161159a565b61168b576040517f08c379a0000000000000000000000000000000000000000000000000000000008152600401611682906132dc565b60405180910390fd5b600034116116ce576040517f08c379a00000000000000000000000000000000000000000000000000000000081526004016116c59061327c565b60405180910390fd5b6000600454111561179557600360009054906101000a900473ffffffffffffffffffffffffffffffffffffffff1673ffffffffffffffffffffffffffffffffffffffff166323b872dd61171f611c54565b306004546040518463ffffffff1660e01b8152600401611741939291906130a4565b602060405180830381600087803b15801561175b57600080fd5b505af115801561176f573d6000803e3d6000fd5b505050506040513d601f19601f82011682018060405250810190611793919061296d565b505b6117a0600034611f2a565b15611854576117ad612498565b8281606001819052506000816000019073ffffffffffffffffffffffffffffffffffffffff16908173ffffffffffffffffffffffffffffffffffffffff16815250503481602001818152505060045481604001818152505061180e81611f7a565b7f94625b0a2dd0ef3e6dabbf52be47159b47cbd3ac7efb51b7a8d363a540c00bbe836000346004546040516118469493929190613210565b60405180910390a150611895565b7fb3f8ed69a3b49c0460199974be11a2a9852ad17addee34ac9c7274e1164022e08260003460045460405161188c9493929190613210565b60405180910390a15b5050565b600260009054906101000a900473ffffffffffffffffffffffffffffffffffffffff1673ffffffffffffffffffffffffffffffffffffffff1663331052186118df611c54565b6040518263ffffffff1660e01b81526004016118fb9190613089565b602060405180830381600087803b15801561191557600080fd5b505af1158015611929573d6000803e3d6000fd5b505050506040513d601f19601f8201168201806040525081019061194d919061296d565b61198c576040517f08c379a00000000000000000000000000000000000000000000000000000000081526004016119839061329c565b60405180910390fd5b60008160405160200161199f91906132fc565b6040516020818303038152906040528051906020012090506119cb81600661215890919063ffffffff16565b6119d55750611a93565b6119e981600661216f90919063ffffffff16565b50600d6000828152602001908152602001600020600080820160006101000a81549073ffffffffffffffffffffffffffffffffffffffff021916905560018201600090556002820160009055600382016000611a4591906124f7565b600482016000905550507f847cab1d28004b25c9b061d33e783b3ae78a1f021d5b56f538e603afdda3e3e581611a7b60066120a9565b604051611a899291906131e0565b60405180910390a1505b50565b6000601060008373ffffffffffffffffffffffffffffffffffffffff1673ffffffffffffffffffffffffffffffffffffffff168152602001908152602001600020549050919050565b600260009054906101000a900473ffffffffffffffffffffffffffffffffffffffff1673ffffffffffffffffffffffffffffffffffffffff166333105218611b25611c54565b6040518263ffffffff1660e01b8152600401611b419190613089565b602060405180830381600087803b158015611b5b57600080fd5b505af1158015611b6f573d6000803e3d6000fd5b505050506040513d601f19601f82011682018060405250810190611b93919061296d565b611bd2576040517f08c379a0000000000000000000000000000000000000000000000000000000008152600401611bc99061329c565b60405180910390fd5b611bdb81612186565b50565b6001816000016000828254019250508190555050565b6000611c1c836000018373ffffffffffffffffffffffffffffffffffffffff1660001b6121bd565b905092915050565b6000611c4c836000018373ffffffffffffffffffffffffffffffffffffffff1660001b6121e0565b905092915050565b600033905090565b611c7082600b611bf490919063ffffffff16565b15611c7a57611c9a565b611c8e82600b611c2490919063ffffffff16565b50611c9982826120be565b5b5050565b600081606001511415611cb057611d48565b600360009054906101000a900473ffffffffffffffffffffffffffffffffffffffff1673ffffffffffffffffffffffffffffffffffffffff166340c10f19826000015183606001516040518363ffffffff1660e01b8152600401611d15929190613104565b600060405180830381600087803b158015611d2f57600080fd5b505af1158015611d43573d6000803e3d6000fd5b505050505b50565b600081604001511415611d5d57611dad565b806000015173ffffffffffffffffffffffffffffffffffffffff166108fc82604001519081150290604051600060405180830381858888f19350505050158015611dab573d6000803e3d6000fd5b505b50565b600081604001511415611dc257611eee565b611dcf8160200151611624565b15611e5257806020015173ffffffffffffffffffffffffffffffffffffffff166340c10f19826000015183604001516040518363ffffffff1660e01b8152600401611e1b929190613104565b600060405180830381600087803b158015611e3557600080fd5b505af1158015611e49573d6000803e3d6000fd5b50505050611eed565b806020015173ffffffffffffffffffffffffffffffffffffffff1663a9059cbb826000015183604001516040518363ffffffff1660e01b8152600401611e99929190613104565b602060405180830381600087803b158015611eb357600080fd5b505af1158015611ec7573d6000803e3d6000fd5b505050506040513d601f19601f82011682018060405250810190611eeb919061296d565b505b5b50565b611f0581600961225090919063ffffffff16565b5050565b60606000611f1983600001612280565b905060608190508092505050919050565b600081600f60008573ffffffffffffffffffffffffffffffffffffffff1673ffffffffffffffffffffffffffffffffffffffff168152602001908152602001600020600101541115905092915050565b611f8460086122dc565b816080018181525050611f976008611bde565b600081604051602001611faa91906132fc565b604051602081830303815290604052805190602001209050611fd681600661215890919063ffffffff16565b15611fe15750612091565b611ff58160066122ea90919063ffffffff16565b5081600d600083815260200190815260200160002060008201518160000160006101000a81548173ffffffffffffffffffffffffffffffffffffffff021916908373ffffffffffffffffffffffffffffffffffffffff16021790555060208201518160010155604082015181600201556060820151816003019080519060200190612081929190612537565b5060808201518160040155905050505b50565b60006120a282600001612301565b9050919050565b60606120b782600001612280565b9050919050565b816011600083815260200190815260200160002060006101000a81548173ffffffffffffffffffffffffffffffffffffffff021916908373ffffffffffffffffffffffffffffffffffffffff16021790555080601060008473ffffffffffffffffffffffffffffffffffffffff1673ffffffffffffffffffffffffffffffffffffffff168152602001908152602001600020819055505050565b600061216783600001836121bd565b905092915050565b600061217e8360000183612312565b905092915050565b61219a816009611bf490919063ffffffff16565b156121a4576121ba565b6121b8816009611c2490919063ffffffff16565b505b50565b600080836001016000848152602001908152602001600020541415905092915050565b60006121ec83836121bd565b61224557826000018290806001815401808255809150506001900390600052602060002001600090919091909150558260000180549050836001016000848152602001908152602001600020819055506001905061224a565b600090505b92915050565b6000612278836000018373ffffffffffffffffffffffffffffffffffffffff1660001b612312565b905092915050565b6060816000018054806020026020016040519081016040528092919081815260200182805480156122d057602002820191906000526020600020905b8154815260200190600101908083116122bc575b50505050509050919050565b600081600001549050919050565b60006122f983600001836121e0565b905092915050565b600081600001805490509050919050565b6000808360010160008481526020019081526020016000205490506000811461248c57600060018261234491906134fa565b905060006001866000018054905061235c91906134fa565b90508181146124175760008660000182815481106123a3577f4e487b7100000000000000000000000000000000000000000000000000000000600052603260045260246000fd5b90600052602060002001549050808760000184815481106123ed577f4e487b7100000000000000000000000000000000000000000000000000000000600052603260045260246000fd5b90600052602060002001819055508387600101600083815260200190815260200160002081905550505b85600001805480612451577f4e487b7100000000000000000000000000000000000000000000000000000000600052603160045260246000fd5b600190038181906000526020600020016000905590558560010160008681526020019081526020016000206000905560019350505050612492565b60009150505b92915050565b6040518060a00160405280600073ffffffffffffffffffffffffffffffffffffffff168152602001600081526020016000815260200160608152602001600081525090565b604051806040016040528060008152602001600081525090565b50805461250390613624565b6000825580601f106125155750612534565b601f01602090049060005260206000209081019061253391906125bd565b5b50565b82805461254390613624565b90600052602060002090601f01602090048101928261256557600085556125ac565b82601f1061257e57805160ff19168380011785556125ac565b828001600101855582156125ac579182015b828111156125ab578251825591602001919060010190612590565b5b5090506125b991906125bd565b5090565b5b808211156125d65760008160009055506001016125be565b5090565b60006125ed6125e884613379565b613354565b90508281526020810184848401111561260557600080fd5b61261084828561359c565b509392505050565b6000813590506126278161399a565b92915050565b60008083601f84011261263f57600080fd5b8235905067ffffffffffffffff81111561265857600080fd5b6020830191508360a082028301111561267057600080fd5b9250929050565b600081519050612686816139b1565b92915050565b60008135905061269b816139c8565b92915050565b600082601f8301126126b257600080fd5b81356126c28482602086016125da565b91505092915050565b600060a082840312156126dd57600080fd5b6126e760a0613354565b905060006126f784828501612618565b600083015250602061270b8482850161280e565b602083015250604061271f8482850161280e565b604083015250606082013567ffffffffffffffff81111561273f57600080fd5b61274b848285016126a1565b606083015250608061275f8482850161280e565b60808301525092915050565b600060a0828403121561277d57600080fd5b61278760a0613354565b9050600061279784828501612618565b60008301525060206127ab84828501612618565b60208301525060406127bf8482850161280e565b60408301525060606127d38482850161280e565b60608301525060806127e78482850161268c565b60808301525092915050565b60006040828403121561280557600080fd5b81905092915050565b60008135905061281d816139df565b92915050565b600081519050612832816139df565b92915050565b60006020828403121561284a57600080fd5b600061285884828501612618565b91505092915050565b6000806040838503121561287457600080fd5b600061288285828601612618565b92505060206128938582860161268c565b9150509250929050565b600080606083850312156128b057600080fd5b60006128be85828601612618565b92505060206128cf858286016127f3565b9150509250929050565b600080604083850312156128ec57600080fd5b60006128fa85828601612618565b925050602061290b8582860161280e565b9150509250929050565b60008060006040848603121561292a57600080fd5b600084013567ffffffffffffffff81111561294457600080fd5b6129508682870161262d565b935093505060206129638682870161280e565b9150509250925092565b60006020828403121561297f57600080fd5b600061298d84828501612677565b91505092915050565b6000602082840312156129a857600080fd5b60006129b68482850161268c565b91505092915050565b6000602082840312156129d157600080fd5b600082013567ffffffffffffffff8111156129eb57600080fd5b6129f7848285016126a1565b91505092915050565b600080600060608486031215612a1557600080fd5b600084013567ffffffffffffffff811115612a2f57600080fd5b612a3b868287016126a1565b9350506020612a4c86828701612618565b9250506040612a5d8682870161280e565b9150509250925092565b600060208284031215612a7957600080fd5b600082013567ffffffffffffffff811115612a9357600080fd5b612a9f848285016126cb565b91505092915050565b600060a08284031215612aba57600080fd5b6000612ac88482850161276b565b91505092915050565b600060208284031215612ae357600080fd5b6000612af18482850161280e565b91505092915050565b600060208284031215612b0c57600080fd5b6000612b1a84828501612823565b91505092915050565b6000612b2f8383612b7f565b60208301905092915050565b6000612b478383612d3a565b60208301905092915050565b6000612b5f8383612e79565b905092915050565b6000612b738383612f65565b60a08301905092915050565b612b8881613538565b82525050565b612b9781613538565b82525050565b6000612ba8826133e4565b612bb28185613444565b9350612bbd836133aa565b8060005b83811015612bee578151612bd58882612b23565b9750612be083613410565b925050600181019050612bc1565b5085935050505092915050565b6000612c06826133ef565b612c108185613455565b9350612c1b836133ba565b8060005b83811015612c4c578151612c338882612b3b565b9750612c3e8361341d565b925050600181019050612c1f565b5085935050505092915050565b6000612c64826133fa565b612c6e8185613466565b935083602082028501612c80856133ca565b8060005b85811015612cbc5784840389528151612c9d8582612b53565b9450612ca88361342a565b925060208a01995050600181019050612c84565b50829750879550505050505092915050565b6000612cda8385613477565b9350612ce5826133da565b8060005b85811015612d1e57612cfb82846134d8565b612d058882612b67565b9750612d1083613437565b925050600181019050612ce9565b5085925050509392505050565b612d348161354a565b82525050565b612d4381613556565b82525050565b612d5281613556565b82525050565b6000612d6382613405565b612d6d8185613488565b9350612d7d8185602086016135ab565b612d8681613797565b840191505092915050565b6000612d9c82613405565b612da68185613499565b9350612db68185602086016135ab565b612dbf81613797565b840191505092915050565b6000612dd7602683613499565b9150612de2826137c2565b604082019050919050565b6000612dfa602583613499565b9150612e0582613811565b604082019050919050565b6000612e1d602383613499565b9150612e2882613860565b604082019050919050565b6000612e40602a83613499565b9150612e4b826138af565b604082019050919050565b6000612e63601f83613499565b9150612e6e826138fe565b602082019050919050565b600060a083016000830151612e916000860182612b7f565b506020830151612ea4602086018261306b565b506040830151612eb7604086018261306b565b5060608301518482036060860152612ecf8282612d58565b9150506080830151612ee4608086018261306b565b508091505092915050565b600060a083016000830151612f076000860182612b7f565b506020830151612f1a602086018261306b565b506040830151612f2d604086018261306b565b5060608301518482036060860152612f458282612d58565b9150506080830151612f5a608086018261306b565b508091505092915050565b60a08201612f7660008301836134aa565b612f836000850182612b7f565b50612f9160208301836134aa565b612f9e6020850182612b7f565b50612fac60408301836134e3565b612fb9604085018261306b565b50612fc760608301836134e3565b612fd4606085018261306b565b50612fe260808301836134c1565b612fef6080850182612d3a565b50505050565b60408201600082015161300b600085018261306b565b50602082015161301e602085018261306b565b50505050565b60408201600080830154905061303981613656565b613046600086018261306b565b506001830154905061305781613656565b613064602086018261306b565b5050505050565b61307481613580565b82525050565b61308381613580565b82525050565b600060208201905061309e6000830184612b8e565b92915050565b60006060820190506130b96000830186612b8e565b6130c66020830185612b8e565b6130d3604083018461307a565b949350505050565b60006060820190506130f06000830185612b8e565b6130fd6020830184613024565b9392505050565b60006040820190506131196000830185612b8e565b613126602083018461307a565b9392505050565b600060208201905081810360008301526131478184612b9d565b905092915050565b600060408201905081810360008301526131698185612c59565b9050818103602083015261317d8184612bfb565b90509392505050565b600060208201905081810360008301526131a1818486612cce565b90509392505050565b60006020820190506131bf6000830184612d2b565b92915050565b60006020820190506131da6000830184612d49565b92915050565b60006040820190506131f56000830185612d49565b81810360208301526132078184612bfb565b90509392505050565b6000608082019050818103600083015261322a8187612d91565b90506132396020830186612b8e565b613246604083018561307a565b613253606083018461307a565b95945050505050565b6000602082019050818103600083015261327581612dca565b9050919050565b6000602082019050818103600083015261329581612ded565b9050919050565b600060208201905081810360008301526132b581612e10565b9050919050565b600060208201905081810360008301526132d581612e33565b9050919050565b600060208201905081810360008301526132f581612e56565b9050919050565b600060208201905081810360008301526133168184612eef565b905092915050565b60006040820190506133336000830184612ff5565b92915050565b600060208201905061334e600083018461307a565b92915050565b600061335e61336f565b905061336a8282613670565b919050565b6000604051905090565b600067ffffffffffffffff82111561339457613393613748565b5b61339d82613797565b9050602081019050919050565b6000819050602082019050919050565b6000819050602082019050919050565b6000819050602082019050919050565b6000819050919050565b600081519050919050565b600081519050919050565b600081519050919050565b600081519050919050565b6000602082019050919050565b6000602082019050919050565b6000602082019050919050565b600060a082019050919050565b600082825260208201905092915050565b600082825260208201905092915050565b600082825260208201905092915050565b600082825260208201905092915050565b600082825260208201905092915050565b600082825260208201905092915050565b60006134b96020840184612618565b905092915050565b60006134d0602084018461268c565b905092915050565b600082905092915050565b60006134f2602084018461280e565b905092915050565b600061350582613580565b915061351083613580565b925082821015613523576135226136ea565b5b828203905092915050565b6000819050919050565b600061354382613560565b9050919050565b60008115159050919050565b6000819050919050565b600073ffffffffffffffffffffffffffffffffffffffff82169050919050565b6000819050919050565b600061359582613580565b9050919050565b82818337600083830152505050565b60005b838110156135c95780820151818401526020810190506135ae565b838111156135d8576000848401525b50505050565b6000810160008301806135f081613781565b90506135fc8184613977565b50505060018101602083018061361181613781565b905061361d8184613977565b5050505050565b6000600282049050600182168061363c57607f821691505b602082108114156136505761364f613719565b5b50919050565b6000613669613664836137b5565b61352e565b9050919050565b61367982613797565b810181811067ffffffffffffffff8211171561369857613697613748565b5b80604052505050565b60006136ac82613580565b91507fffffffffffffffffffffffffffffffffffffffffffffffffffffffffffffffff8214156136df576136de6136ea565b5b600182019050919050565b7f4e487b7100000000000000000000000000000000000000000000000000000000600052601160045260246000fd5b7f4e487b7100000000000000000000000000000000000000000000000000000000600052602260045260246000fd5b7f4e487b7100000000000000000000000000000000000000000000000000000000600052604160045260246000fd5b6000819050919050565b6000813561378e816139df565b80915050919050565b6000601f19601f8301169050919050565b60008160001b9050919050565b60008160001c9050919050565b7f43726f7373436861696e3a20616d6f756e74206d757374206265206d6f72652060008201527f7468616e20300000000000000000000000000000000000000000000000000000602082015250565b7f43726f7373436861696e3a2076616c7565206d757374206265206d6f7265207460008201527f68616e2030000000000000000000000000000000000000000000000000000000602082015250565b7f43726f7373436861696e3a2073656e646572206d75737420626520766572696660008201527f6965720000000000000000000000000000000000000000000000000000000000602082015250565b7f43726f7373436861696e3a20616d6f756e74206f662077636b6220697320696e60008201527f73756666696369656e7400000000000000000000000000000000000000000000602082015250565b7f43726f7373436861696e3a20746f6b656e206e6f742077686974656c69737400600082015250565b60007fffffffffffffffffffffffffffffffffffffffffffffffffffffffffffffffff613953846137a8565b9350801983169250808416831791505092915050565b61397382826135de565b5050565b6139808261358a565b61399361398c82613777565b8354613927565b8255505050565b6139a381613538565b81146139ae57600080fd5b50565b6139ba8161354a565b81146139c557600080fd5b50565b6139d181613556565b81146139dc57600080fd5b50565b6139e881613580565b81146139f357600080fd5b5056fea2646970667358221220ac13445145180aa32397271b8f7bd5115a4ebf085c02bebe191cff7d29033a3964736f6c63430008040033",
  "linkReferences": {},
  "deployedLinkReferences": {}
}