{
  "_format": "hh-sol-artifact-1",
  "contractName": "MirrorToken",
  "sourceName": "contracts/MirrorToken.sol",
  "abi": [
    {
      "inputs": [
        {
          "internalType": "string",
          "name": "name",
          "type": "string"
        },
        {
          "internalType": "string",
          "name": "symbol",
          "type": "string"
        }
      ],
      "stateMutability": "nonpayable",
      "type": "constructor"
    },
    {
      "anonymous": false,
      "inputs": [
        {
          "indexed": true,
          "internalType": "address",
          "name": "owner",
          "type": "address"
        },
        {
          "indexed": true,
          "internalType": "address",
          "name": "spender",
          "type": "address"
        },
        {
          "indexed": false,
          "internalType": "uint256",
          "name": "value",
          "type": "uint256"
        }
      ],
      "name": "Approval",
      "type": "event"
    },
    {
      "anonymous": false,
      "inputs": [
        {
          "indexed": true,
          "internalType": "address",
          "name": "previousOwner",
          "type": "address"
        },
        {
          "indexed": true,
          "internalType": "address",
          "name": "newOwner",
          "type": "address"
        }
      ],
      "name": "OwnershipTransferred",
      "type": "event"
    },
    {
      "anonymous": false,
      "inputs": [
        {
          "indexed": true,
          "internalType": "bytes32",
          "name": "role",
          "type": "bytes32"
        },
        {
          "indexed": true,
          "internalType": "bytes32",
          "name": "previousAdminRole",
          "type": "bytes32"
        },
        {
          "indexed": true,
          "internalType": "bytes32",
          "name": "newAdminRole",
          "type": "bytes32"
        }
      ],
      "name": "RoleAdminChanged",
      "type": "event"
    },
    {
      "anonymous": false,
      "inputs": [
        {
          "indexed": true,
          "internalType": "bytes32",
          "name": "role",
          "type": "bytes32"
        },
        {
          "indexed": true,
          "internalType": "address",
          "name": "account",
          "type": "address"
        },
        {
          "indexed": true,
          "internalType": "address",
          "name": "sender",
          "type": "address"
        }
      ],
      "name": "RoleGranted",
      "type": "event"
    },
    {
      "anonymous": false,
      "inputs": [
        {
          "indexed": true,
          "internalType": "bytes32",
          "name": "role",
          "type": "bytes32"
        },
        {
          "indexed": true,
          "internalType": "address",
          "name": "account",
          "type": "address"
        },
        {
          "indexed": true,
          "internalType": "address",
          "name": "sender",
          "type": "address"
        }
      ],
      "name": "RoleRevoked",
      "type": "event"
    },
    {
      "anonymous": false,
      "inputs": [
        {
          "indexed": true,
          "internalType": "address",
          "name": "from",
          "type": "address"
        },
        {
          "indexed": true,
          "internalType": "address",
          "name": "to",
          "type": "address"
        },
        {
          "indexed": false,
          "internalType": "uint256",
          "name": "value",
          "type": "uint256"
        }
      ],
      "name": "Transfer",
      "type": "event"
    },
    {
      "inputs": [],
      "name": "DEFAULT_ADMIN_ROLE",
      "outputs": [
        {
          "internalType": "bytes32",
          "name": "",
          "type": "bytes32"
        }
      ],
      "stateMutability": "view",
      "type": "function"
    },
    {
      "inputs": [],
      "name": "MANAGER_ROLE",
      "outputs": [
        {
          "internalType": "bytes32",
          "name": "",
          "type": "bytes32"
        }
      ],
      "stateMutability": "view",
      "type": "function"
    },
    {
      "inputs": [
        {
          "internalType": "address",
          "name": "owner",
          "type": "address"
        },
        {
          "internalType": "address",
          "name": "spender",
          "type": "address"
        }
      ],
      "name": "allowance",
      "outputs": [
        {
          "internalType": "uint256",
          "name": "",
          "type": "uint256"
        }
      ],
      "stateMutability": "view",
      "type": "function"
    },
    {
      "inputs": [
        {
          "internalType": "address",
          "name": "spender",
          "type": "address"
        },
        {
          "internalType": "uint256",
          "name": "amount",
          "type": "uint256"
        }
      ],
      "name": "approve",
      "outputs": [
        {
          "internalType": "bool",
          "name": "",
          "type": "bool"
        }
      ],
      "stateMutability": "nonpayable",
      "type": "function"
    },
    {
      "inputs": [
        {
          "internalType": "address",
          "name": "account",
          "type": "address"
        }
      ],
      "name": "balanceOf",
      "outputs": [
        {
          "internalType": "uint256",
          "name": "",
          "type": "uint256"
        }
      ],
      "stateMutability": "view",
      "type": "function"
    },
    {
      "inputs": [
        {
          "internalType": "address",
          "name": "from",
          "type": "address"
        },
        {
          "internalType": "uint256",
          "name": "amount",
          "type": "uint256"
        }
      ],
      "name": "burn",
      "outputs": [],
      "stateMutability": "nonpayable",
      "type": "function"
    },
    {
      "inputs": [],
      "name": "decimals",
      "outputs": [
        {
          "internalType": "uint8",
          "name": "",
          "type": "uint8"
        }
      ],
      "stateMutability": "view",
      "type": "function"
    },
    {
      "inputs": [
        {
          "internalType": "address",
          "name": "spender",
          "type": "address"
        },
        {
          "internalType": "uint256",
          "name": "subtractedValue",
          "type": "uint256"
        }
      ],
      "name": "decreaseAllowance",
      "outputs": [
        {
          "internalType": "bool",
          "name": "",
          "type": "bool"
        }
      ],
      "stateMutability": "nonpayable",
      "type": "function"
    },
    {
      "inputs": [
        {
          "internalType": "bytes32",
          "name": "role",
          "type": "bytes32"
        }
      ],
      "name": "getRoleAdmin",
      "outputs": [
        {
          "internalType": "bytes32",
          "name": "",
          "type": "bytes32"
        }
      ],
      "stateMutability": "view",
      "type": "function"
    },
    {
      "inputs": [
        {
          "internalType": "bytes32",
          "name": "role",
          "type": "bytes32"
        },
        {
          "internalType": "address",
          "name": "account",
          "type": "address"
        }
      ],
      "name": "grantRole",
      "outputs": [],
      "stateMutability": "nonpayable",
      "type": "function"
    },
    {
      "inputs": [
        {
          "internalType": "bytes32",
          "name": "role",
          "type": "bytes32"
        },
        {
          "internalType": "address",
          "name": "account",
          "type": "address"
        }
      ],
      "name": "hasRole",
      "outputs": [
        {
          "internalType": "bool",
          "name": "",
          "type": "bool"
        }
      ],
      "stateMutability": "view",
      "type": "function"
    },
    {
      "inputs": [
        {
          "internalType": "address",
          "name": "spender",
          "type": "address"
        },
        {
          "internalType": "uint256",
          "name": "addedValue",
          "type": "uint256"
        }
      ],
      "name": "increaseAllowance",
      "outputs": [
        {
          "internalType": "bool",
          "name": "",
          "type": "bool"
        }
      ],
      "stateMutability": "nonpayable",
      "type": "function"
    },
    {
      "inputs": [
        {
          "internalType": "address",
          "name": "to",
          "type": "address"
        },
        {
          "internalType": "uint256",
          "name": "amount",
          "type": "uint256"
        }
      ],
      "name": "mint",
      "outputs": [],
      "stateMutability": "nonpayable",
      "type": "function"
    },
    {
      "inputs": [],
      "name": "name",
      "outputs": [
        {
          "internalType": "string",
          "name": "",
          "type": "string"
        }
      ],
      "stateMutability": "view",
      "type": "function"
    },
    {
      "inputs": [],
      "name": "owner",
      "outputs": [
        {
          "internalType": "address",
          "name": "",
          "type": "address"
        }
      ],
      "stateMutability": "view",
      "type": "function"
    },
    {
      "inputs": [],
      "name": "renounceOwnership",
      "outputs": [],
      "stateMutability": "nonpayable",
      "type": "function"
    },
    {
      "inputs": [
        {
          "internalType": "bytes32",
          "name": "role",
          "type": "bytes32"
        },
        {
          "internalType": "address",
          "name": "account",
          "type": "address"
        }
      ],
      "name": "renounceRole",
      "outputs": [],
      "stateMutability": "nonpayable",
      "type": "function"
    },
    {
      "inputs": [
        {
          "internalType": "bytes32",
          "name": "role",
          "type": "bytes32"
        },
        {
          "internalType": "address",
          "name": "account",
          "type": "address"
        }
      ],
      "name": "revokeRole",
      "outputs": [],
      "stateMutability": "nonpayable",
      "type": "function"
    },
    {
      "inputs": [
        {
          "internalType": "bytes4",
          "name": "interfaceId",
          "type": "bytes4"
        }
      ],
      "name": "supportsInterface",
      "outputs": [
        {
          "internalType": "bool",
          "name": "",
          "type": "bool"
        }
      ],
      "stateMutability": "view",
      "type": "function"
    },
    {
      "inputs": [],
      "name": "symbol",
      "outputs": [
        {
          "internalType": "string",
          "name": "",
          "type": "string"
        }
      ],
      "stateMutability": "view",
      "type": "function"
    },
    {
      "inputs": [],
      "name": "totalSupply",
      "outputs": [
        {
          "internalType": "uint256",
          "name": "",
          "type": "uint256"
        }
      ],
      "stateMutability": "view",
      "type": "function"
    },
    {
      "inputs": [
        {
          "internalType": "address",
          "name": "to",
          "type": "address"
        },
        {
          "internalType": "uint256",
          "name": "amount",
          "type": "uint256"
        }
      ],
      "name": "transfer",
      "outputs": [
        {
          "internalType": "bool",
          "name": "",
          "type": "bool"
        }
      ],
      "stateMutability": "nonpayable",
      "type": "function"
    },
    {
      "inputs": [
        {
          "internalType": "address",
          "name": "from",
          "type": "address"
        },
        {
          "internalType": "address",
          "name": "to",
          "type": "address"
        },
        {
          "internalType": "uint256",
          "name": "amount",
          "type": "uint256"
        }
      ],
      "name": "transferFrom",
      "outputs": [
        {
          "internalType": "bool",
          "name": "",
          "type": "bool"
        }
      ],
      "stateMutability": "nonpayable",
      "type": "function"
    },
    {
      "inputs": [
        {
          "internalType": "address",
          "name": "newOwner",
          "type": "address"
        }
      ],
      "name": "transferOwnership",
      "outputs": [],
      "stateMutability": "nonpayable",
      "type": "function"
    }
  ],
  "bytecode": "0x60806040523480156200001157600080fd5b5060405162002f5538038062002f5583398181016040528101906200003791906200041c565b8181816003908051906020019062000051929190620002fa565b5080600490805190602001906200006a929190620002fa565b5050506200008d62000081620000b960201b60201c565b620000c160201b60201c565b620000b16000801b620000a5620000b960201b60201c565b6200018760201b60201c565b5050620005ff565b600033905090565b6000600660009054906101000a900473ffffffffffffffffffffffffffffffffffffffff16905081600660006101000a81548173ffffffffffffffffffffffffffffffffffffffff021916908373ffffffffffffffffffffffffffffffffffffffff1602179055508173ffffffffffffffffffffffffffffffffffffffff168173ffffffffffffffffffffffffffffffffffffffff167f8be0079c531659141344cd1fd0a4f28419497f9722a3daafe3b4186f6b6457e060405160405180910390a35050565b6200019982826200019d60201b60201c565b5050565b620001af82826200028f60201b60201c565b6200028b5760016005600084815260200190815260200160002060000160008373ffffffffffffffffffffffffffffffffffffffff1673ffffffffffffffffffffffffffffffffffffffff16815260200190815260200160002060006101000a81548160ff02191690831515021790555062000230620000b960201b60201c565b73ffffffffffffffffffffffffffffffffffffffff168173ffffffffffffffffffffffffffffffffffffffff16837f2f8788117e7eff1d82e926ec794901d17c78024a50270940304540a733656f0d60405160405180910390a45b5050565b60006005600084815260200190815260200160002060000160008373ffffffffffffffffffffffffffffffffffffffff1673ffffffffffffffffffffffffffffffffffffffff16815260200190815260200160002060009054906101000a900460ff16905092915050565b828054620003089062000524565b90600052602060002090601f0160209004810192826200032c576000855562000378565b82601f106200034757805160ff191683800117855562000378565b8280016001018555821562000378579182015b82811115620003775782518255916020019190600101906200035a565b5b5090506200038791906200038b565b5090565b5b80821115620003a65760008160009055506001016200038c565b5090565b6000620003c1620003bb84620004b8565b6200048f565b905082815260208101848484011115620003da57600080fd5b620003e7848285620004ee565b509392505050565b600082601f8301126200040157600080fd5b815162000413848260208601620003aa565b91505092915050565b600080604083850312156200043057600080fd5b600083015167ffffffffffffffff8111156200044b57600080fd5b6200045985828601620003ef565b925050602083015167ffffffffffffffff8111156200047757600080fd5b6200048585828601620003ef565b9150509250929050565b60006200049b620004ae565b9050620004a982826200055a565b919050565b6000604051905090565b600067ffffffffffffffff821115620004d657620004d5620005bf565b5b620004e182620005ee565b9050602081019050919050565b60005b838110156200050e578082015181840152602081019050620004f1565b838111156200051e576000848401525b50505050565b600060028204905060018216806200053d57607f821691505b6020821081141562000554576200055362000590565b5b50919050565b6200056582620005ee565b810181811067ffffffffffffffff82111715620005875762000586620005bf565b5b80604052505050565b7f4e487b7100000000000000000000000000000000000000000000000000000000600052602260045260246000fd5b7f4e487b7100000000000000000000000000000000000000000000000000000000600052604160045260246000fd5b6000601f19601f8301169050919050565b612946806200060f6000396000f3fe608060405234801561001057600080fd5b50600436106101585760003560e01c8063715018a6116100c3578063a457c2d71161007c578063a457c2d7146103db578063a9059cbb1461040b578063d547741f1461043b578063dd62ed3e14610457578063ec87621c14610487578063f2fde38b146104a557610158565b8063715018a61461032b5780638da5cb5b1461033557806391d148541461035357806395d89b41146103835780639dc29fac146103a1578063a217fddf146103bd57610158565b80632f2ff15d116101155780632f2ff15d14610259578063313ce5671461027557806336568abe1461029357806339509351146102af57806340c10f19146102df57806370a08231146102fb57610158565b806301ffc9a71461015d57806306fdde031461018d578063095ea7b3146101ab57806318160ddd146101db57806323b872dd146101f9578063248a9ca314610229575b600080fd5b61017760048036038101906101729190611c63565b6104c1565b6040516101849190611fc6565b60405180910390f35b61019561053b565b6040516101a29190611ffc565b60405180910390f35b6101c560048036038101906101c09190611bc2565b6105cd565b6040516101d29190611fc6565b60405180910390f35b6101e36105f0565b6040516101f091906121de565b60405180910390f35b610213600480360381019061020e9190611b73565b6105fa565b6040516102209190611fc6565b60405180910390f35b610243600480360381019061023e9190611bfe565b610629565b6040516102509190611fe1565b60405180910390f35b610273600480360381019061026e9190611c27565b610649565b005b61027d61066a565b60405161028a91906121f9565b60405180910390f35b6102ad60048036038101906102a89190611c27565b610673565b005b6102c960048036038101906102c49190611bc2565b6106f6565b6040516102d69190611fc6565b60405180910390f35b6102f960048036038101906102f49190611bc2565b61072d565b005b61031560048036038101906103109190611b0e565b610766565b60405161032291906121de565b60405180910390f35b6103336107ae565b005b61033d610836565b60405161034a9190611fab565b60405180910390f35b61036d60048036038101906103689190611c27565b610860565b60405161037a9190611fc6565b60405180910390f35b61038b6108cb565b6040516103989190611ffc565b60405180910390f35b6103bb60048036038101906103b69190611bc2565b61095d565b005b6103c5610996565b6040516103d29190611fe1565b60405180910390f35b6103f560048036038101906103f09190611bc2565b61099d565b6040516104029190611fc6565b60405180910390f35b61042560048036038101906104209190611bc2565b610a14565b6040516104329190611fc6565b60405180910390f35b61045560048036038101906104509190611c27565b610a37565b005b610471600480360381019061046c9190611b37565b610a58565b60405161047e91906121de565b60405180910390f35b61048f610adf565b60405161049c9190611fe1565b60405180910390f35b6104bf60048036038101906104ba9190611b0e565b610b03565b005b60007f7965db0b000000000000000000000000000000000000000000000000000000007bffffffffffffffffffffffffffffffffffffffffffffffffffffffff1916827bffffffffffffffffffffffffffffffffffffffffffffffffffffffff19161480610534575061053382610bfb565b5b9050919050565b60606003805461054a90612407565b80601f016020809104026020016040519081016040528092919081815260200182805461057690612407565b80156105c35780601f10610598576101008083540402835291602001916105c3565b820191906000526020600020905b8154815290600101906020018083116105a657829003601f168201915b5050505050905090565b6000806105d8610c65565b90506105e5818585610c6d565b600191505092915050565b6000600254905090565b600080610605610c65565b9050610612858285610e38565b61061d858585610ec4565b60019150509392505050565b600060056000838152602001908152602001600020600101549050919050565b61065282610629565b61065b81611145565b6106658383611159565b505050565b60006012905090565b61067b610c65565b73ffffffffffffffffffffffffffffffffffffffff168173ffffffffffffffffffffffffffffffffffffffff16146106e8576040517f08c379a00000000000000000000000000000000000000000000000000000000081526004016106df9061219e565b60405180910390fd5b6106f2828261123a565b5050565b600080610701610c65565b90506107228185856107138589610a58565b61071d919061223b565b610c6d565b600191505092915050565b7f241ecf16d79d0f8dbfb92cbc07fe17840425976cf0667f022fe9877caa831b0861075781611145565b610761838361131c565b505050565b60008060008373ffffffffffffffffffffffffffffffffffffffff1673ffffffffffffffffffffffffffffffffffffffff168152602001908152602001600020549050919050565b6107b6610c65565b73ffffffffffffffffffffffffffffffffffffffff166107d4610836565b73ffffffffffffffffffffffffffffffffffffffff161461082a576040517f08c379a0000000000000000000000000000000000000000000000000000000008152600401610821906120fe565b60405180910390fd5b610834600061147c565b565b6000600660009054906101000a900473ffffffffffffffffffffffffffffffffffffffff16905090565b60006005600084815260200190815260200160002060000160008373ffffffffffffffffffffffffffffffffffffffff1673ffffffffffffffffffffffffffffffffffffffff16815260200190815260200160002060009054906101000a900460ff16905092915050565b6060600480546108da90612407565b80601f016020809104026020016040519081016040528092919081815260200182805461090690612407565b80156109535780601f1061092857610100808354040283529160200191610953565b820191906000526020600020905b81548152906001019060200180831161093657829003601f168201915b5050505050905090565b7f241ecf16d79d0f8dbfb92cbc07fe17840425976cf0667f022fe9877caa831b0861098781611145565b6109918383611542565b505050565b6000801b81565b6000806109a8610c65565b905060006109b68286610a58565b9050838110156109fb576040517f08c379a00000000000000000000000000000000000000000000000000000000081526004016109f29061217e565b60405180910390fd5b610a088286868403610c6d565b60019250505092915050565b600080610a1f610c65565b9050610a2c818585610ec4565b600191505092915050565b610a4082610629565b610a4981611145565b610a53838361123a565b505050565b6000600160008473ffffffffffffffffffffffffffffffffffffffff1673ffffffffffffffffffffffffffffffffffffffff16815260200190815260200160002060008373ffffffffffffffffffffffffffffffffffffffff1673ffffffffffffffffffffffffffffffffffffffff16815260200190815260200160002054905092915050565b7f241ecf16d79d0f8dbfb92cbc07fe17840425976cf0667f022fe9877caa831b0881565b610b0b610c65565b73ffffffffffffffffffffffffffffffffffffffff16610b29610836565b73ffffffffffffffffffffffffffffffffffffffff1614610b7f576040517f08c379a0000000000000000000000000000000000000000000000000000000008152600401610b76906120fe565b60405180910390fd5b600073ffffffffffffffffffffffffffffffffffffffff168173ffffffffffffffffffffffffffffffffffffffff161415610bef576040517f08c379a0000000000000000000000000000000000000000000000000000000008152600401610be69061207e565b60405180910390fd5b610bf88161147c565b50565b60007f01ffc9a7000000000000000000000000000000000000000000000000000000007bffffffffffffffffffffffffffffffffffffffffffffffffffffffff1916827bffffffffffffffffffffffffffffffffffffffffffffffffffffffff1916149050919050565b600033905090565b600073ffffffffffffffffffffffffffffffffffffffff168373ffffffffffffffffffffffffffffffffffffffff161415610cdd576040517f08c379a0000000000000000000000000000000000000000000000000000000008152600401610cd49061215e565b60405180910390fd5b600073ffffffffffffffffffffffffffffffffffffffff168273ffffffffffffffffffffffffffffffffffffffff161415610d4d576040517f08c379a0000000000000000000000000000000000000000000000000000000008152600401610d449061209e565b60405180910390fd5b80600160008573ffffffffffffffffffffffffffffffffffffffff1673ffffffffffffffffffffffffffffffffffffffff16815260200190815260200160002060008473ffffffffffffffffffffffffffffffffffffffff1673ffffffffffffffffffffffffffffffffffffffff168152602001908152602001600020819055508173ffffffffffffffffffffffffffffffffffffffff168373ffffffffffffffffffffffffffffffffffffffff167f8c5be1e5ebec7d5bd14f71427d1e84f3dd0314c0f7b2291e5b200ac8c7c3b92583604051610e2b91906121de565b60405180910390a3505050565b6000610e448484610a58565b90507fffffffffffffffffffffffffffffffffffffffffffffffffffffffffffffffff8114610ebe5781811015610eb0576040517f08c379a0000000000000000000000000000000000000000000000000000000008152600401610ea7906120be565b60405180910390fd5b610ebd8484848403610c6d565b5b50505050565b600073ffffffffffffffffffffffffffffffffffffffff168373ffffffffffffffffffffffffffffffffffffffff161415610f34576040517f08c379a0000000000000000000000000000000000000000000000000000000008152600401610f2b9061213e565b60405180910390fd5b600073ffffffffffffffffffffffffffffffffffffffff168273ffffffffffffffffffffffffffffffffffffffff161415610fa4576040517f08c379a0000000000000000000000000000000000000000000000000000000008152600401610f9b9061203e565b60405180910390fd5b610faf838383611719565b60008060008573ffffffffffffffffffffffffffffffffffffffff1673ffffffffffffffffffffffffffffffffffffffff16815260200190815260200160002054905081811015611035576040517f08c379a000000000000000000000000000000000000000000000000000000000815260040161102c906120de565b60405180910390fd5b8181036000808673ffffffffffffffffffffffffffffffffffffffff1673ffffffffffffffffffffffffffffffffffffffff16815260200190815260200160002081905550816000808573ffffffffffffffffffffffffffffffffffffffff1673ffffffffffffffffffffffffffffffffffffffff16815260200190815260200160002060008282546110c8919061223b565b925050819055508273ffffffffffffffffffffffffffffffffffffffff168473ffffffffffffffffffffffffffffffffffffffff167fddf252ad1be2c89b69c2b068fc378daa952ba7f163c4a11628f55a4df523b3ef8460405161112c91906121de565b60405180910390a361113f84848461171e565b50505050565b61115681611151610c65565b611723565b50565b6111638282610860565b6112365760016005600084815260200190815260200160002060000160008373ffffffffffffffffffffffffffffffffffffffff1673ffffffffffffffffffffffffffffffffffffffff16815260200190815260200160002060006101000a81548160ff0219169083151502179055506111db610c65565b73ffffffffffffffffffffffffffffffffffffffff168173ffffffffffffffffffffffffffffffffffffffff16837f2f8788117e7eff1d82e926ec794901d17c78024a50270940304540a733656f0d60405160405180910390a45b5050565b6112448282610860565b156113185760006005600084815260200190815260200160002060000160008373ffffffffffffffffffffffffffffffffffffffff1673ffffffffffffffffffffffffffffffffffffffff16815260200190815260200160002060006101000a81548160ff0219169083151502179055506112bd610c65565b73ffffffffffffffffffffffffffffffffffffffff168173ffffffffffffffffffffffffffffffffffffffff16837ff6391f5c32d9c69d2a47ea670b442974b53935d1edc7fd64eb21e047a839171b60405160405180910390a45b5050565b600073ffffffffffffffffffffffffffffffffffffffff168273ffffffffffffffffffffffffffffffffffffffff16141561138c576040517f08c379a0000000000000000000000000000000000000000000000000000000008152600401611383906121be565b60405180910390fd5b61139860008383611719565b80600260008282546113aa919061223b565b92505081905550806000808473ffffffffffffffffffffffffffffffffffffffff1673ffffffffffffffffffffffffffffffffffffffff16815260200190815260200160002060008282546113ff919061223b565b925050819055508173ffffffffffffffffffffffffffffffffffffffff16600073ffffffffffffffffffffffffffffffffffffffff167fddf252ad1be2c89b69c2b068fc378daa952ba7f163c4a11628f55a4df523b3ef8360405161146491906121de565b60405180910390a36114786000838361171e565b5050565b6000600660009054906101000a900473ffffffffffffffffffffffffffffffffffffffff16905081600660006101000a81548173ffffffffffffffffffffffffffffffffffffffff021916908373ffffffffffffffffffffffffffffffffffffffff1602179055508173ffffffffffffffffffffffffffffffffffffffff168173ffffffffffffffffffffffffffffffffffffffff167f8be0079c531659141344cd1fd0a4f28419497f9722a3daafe3b4186f6b6457e060405160405180910390a35050565b600073ffffffffffffffffffffffffffffffffffffffff168273ffffffffffffffffffffffffffffffffffffffff1614156115b2576040517f08c379a00000000000000000000000000000000000000000000000000000000081526004016115a99061211e565b60405180910390fd5b6115be82600083611719565b60008060008473ffffffffffffffffffffffffffffffffffffffff1673ffffffffffffffffffffffffffffffffffffffff16815260200190815260200160002054905081811015611644576040517f08c379a000000000000000000000000000000000000000000000000000000000815260040161163b9061205e565b60405180910390fd5b8181036000808573ffffffffffffffffffffffffffffffffffffffff1673ffffffffffffffffffffffffffffffffffffffff16815260200190815260200160002081905550816002600082825461169b91906122eb565b92505081905550600073ffffffffffffffffffffffffffffffffffffffff168373ffffffffffffffffffffffffffffffffffffffff167fddf252ad1be2c89b69c2b068fc378daa952ba7f163c4a11628f55a4df523b3ef8460405161170091906121de565b60405180910390a36117148360008461171e565b505050565b505050565b505050565b61172d8282610860565b6117bc576117528173ffffffffffffffffffffffffffffffffffffffff1660146117c0565b6117608360001c60206117c0565b604051602001611771929190611f71565b6040516020818303038152906040526040517f08c379a00000000000000000000000000000000000000000000000000000000081526004016117b39190611ffc565b60405180910390fd5b5050565b6060600060028360026117d39190612291565b6117dd919061223b565b67ffffffffffffffff81111561181c577f4e487b7100000000000000000000000000000000000000000000000000000000600052604160045260246000fd5b6040519080825280601f01601f19166020018201604052801561184e5781602001600182028036833780820191505090505b5090507f3000000000000000000000000000000000000000000000000000000000000000816000815181106118ac577f4e487b7100000000000000000000000000000000000000000000000000000000600052603260045260246000fd5b60200101907effffffffffffffffffffffffffffffffffffffffffffffffffffffffffffff1916908160001a9053507f780000000000000000000000000000000000000000000000000000000000000081600181518110611936577f4e487b7100000000000000000000000000000000000000000000000000000000600052603260045260246000fd5b60200101907effffffffffffffffffffffffffffffffffffffffffffffffffffffffffffff1916908160001a905350600060018460026119769190612291565b611980919061223b565b90505b6001811115611a6c577f3031323334353637383961626364656600000000000000000000000000000000600f8616601081106119e8577f4e487b7100000000000000000000000000000000000000000000000000000000600052603260045260246000fd5b1a60f81b828281518110611a25577f4e487b7100000000000000000000000000000000000000000000000000000000600052603260045260246000fd5b60200101907effffffffffffffffffffffffffffffffffffffffffffffffffffffffffffff1916908160001a905350600485901c945080611a65906123dd565b9050611983565b5060008414611ab0576040517f08c379a0000000000000000000000000000000000000000000000000000000008152600401611aa79061201e565b60405180910390fd5b8091505092915050565b600081359050611ac9816128b4565b92915050565b600081359050611ade816128cb565b92915050565b600081359050611af3816128e2565b92915050565b600081359050611b08816128f9565b92915050565b600060208284031215611b2057600080fd5b6000611b2e84828501611aba565b91505092915050565b60008060408385031215611b4a57600080fd5b6000611b5885828601611aba565b9250506020611b6985828601611aba565b9150509250929050565b600080600060608486031215611b8857600080fd5b6000611b9686828701611aba565b9350506020611ba786828701611aba565b9250506040611bb886828701611af9565b9150509250925092565b60008060408385031215611bd557600080fd5b6000611be385828601611aba565b9250506020611bf485828601611af9565b9150509250929050565b600060208284031215611c1057600080fd5b6000611c1e84828501611acf565b91505092915050565b60008060408385031215611c3a57600080fd5b6000611c4885828601611acf565b9250506020611c5985828601611aba565b9150509250929050565b600060208284031215611c7557600080fd5b6000611c8384828501611ae4565b91505092915050565b611c958161231f565b82525050565b611ca481612331565b82525050565b611cb38161233d565b82525050565b6000611cc482612214565b611cce818561221f565b9350611cde8185602086016123aa565b611ce781612497565b840191505092915050565b6000611cfd82612214565b611d078185612230565b9350611d178185602086016123aa565b80840191505092915050565b6000611d3060208361221f565b9150611d3b826124a8565b602082019050919050565b6000611d5360238361221f565b9150611d5e826124d1565b604082019050919050565b6000611d7660228361221f565b9150611d8182612520565b604082019050919050565b6000611d9960268361221f565b9150611da48261256f565b604082019050919050565b6000611dbc60228361221f565b9150611dc7826125be565b604082019050919050565b6000611ddf601d8361221f565b9150611dea8261260d565b602082019050919050565b6000611e0260268361221f565b9150611e0d82612636565b604082019050919050565b6000611e2560208361221f565b9150611e3082612685565b602082019050919050565b6000611e4860218361221f565b9150611e53826126ae565b604082019050919050565b6000611e6b60258361221f565b9150611e76826126fd565b604082019050919050565b6000611e8e60248361221f565b9150611e998261274c565b604082019050919050565b6000611eb1601783612230565b9150611ebc8261279b565b601782019050919050565b6000611ed460258361221f565b9150611edf826127c4565b604082019050919050565b6000611ef7601183612230565b9150611f0282612813565b601182019050919050565b6000611f1a602f8361221f565b9150611f258261283c565b604082019050919050565b6000611f3d601f8361221f565b9150611f488261288b565b602082019050919050565b611f5c81612393565b82525050565b611f6b8161239d565b82525050565b6000611f7c82611ea4565b9150611f888285611cf2565b9150611f9382611eea565b9150611f9f8284611cf2565b91508190509392505050565b6000602082019050611fc06000830184611c8c565b92915050565b6000602082019050611fdb6000830184611c9b565b92915050565b6000602082019050611ff66000830184611caa565b92915050565b600060208201905081810360008301526120168184611cb9565b905092915050565b6000602082019050818103600083015261203781611d23565b9050919050565b6000602082019050818103600083015261205781611d46565b9050919050565b6000602082019050818103600083015261207781611d69565b9050919050565b6000602082019050818103600083015261209781611d8c565b9050919050565b600060208201905081810360008301526120b781611daf565b9050919050565b600060208201905081810360008301526120d781611dd2565b9050919050565b600060208201905081810360008301526120f781611df5565b9050919050565b6000602082019050818103600083015261211781611e18565b9050919050565b6000602082019050818103600083015261213781611e3b565b9050919050565b6000602082019050818103600083015261215781611e5e565b9050919050565b6000602082019050818103600083015261217781611e81565b9050919050565b6000602082019050818103600083015261219781611ec7565b9050919050565b600060208201905081810360008301526121b781611f0d565b9050919050565b600060208201905081810360008301526121d781611f30565b9050919050565b60006020820190506121f36000830184611f53565b92915050565b600060208201905061220e6000830184611f62565b92915050565b600081519050919050565b600082825260208201905092915050565b600081905092915050565b600061224682612393565b915061225183612393565b9250827fffffffffffffffffffffffffffffffffffffffffffffffffffffffffffffffff0382111561228657612285612439565b5b828201905092915050565b600061229c82612393565b91506122a783612393565b9250817fffffffffffffffffffffffffffffffffffffffffffffffffffffffffffffffff04831182151516156122e0576122df612439565b5b828202905092915050565b60006122f682612393565b915061230183612393565b92508282101561231457612313612439565b5b828203905092915050565b600061232a82612373565b9050919050565b60008115159050919050565b6000819050919050565b60007fffffffff0000000000000000000000000000000000000000000000000000000082169050919050565b600073ffffffffffffffffffffffffffffffffffffffff82169050919050565b6000819050919050565b600060ff82169050919050565b60005b838110156123c85780820151818401526020810190506123ad565b838111156123d7576000848401525b50505050565b60006123e882612393565b915060008214156123fc576123fb612439565b5b600182039050919050565b6000600282049050600182168061241f57607f821691505b6020821081141561243357612432612468565b5b50919050565b7f4e487b7100000000000000000000000000000000000000000000000000000000600052601160045260246000fd5b7f4e487b7100000000000000000000000000000000000000000000000000000000600052602260045260246000fd5b6000601f19601f8301169050919050565b7f537472696e67733a20686578206c656e67746820696e73756666696369656e74600082015250565b7f45524332303a207472616e7366657220746f20746865207a65726f206164647260008201527f6573730000000000000000000000000000000000000000000000000000000000602082015250565b7f45524332303a206275726e20616d6f756e7420657863656564732062616c616e60008201527f6365000000000000000000000000000000000000000000000000000000000000602082015250565b7f4f776e61626c653a206e6577206f776e657220697320746865207a65726f206160008201527f6464726573730000000000000000000000000000000000000000000000000000602082015250565b7f45524332303a20617070726f766520746f20746865207a65726f20616464726560008201527f7373000000000000000000000000000000000000000000000000000000000000602082015250565b7f45524332303a20696e73756666696369656e7420616c6c6f77616e6365000000600082015250565b7f45524332303a207472616e7366657220616d6f756e742065786365656473206260008201527f616c616e63650000000000000000000000000000000000000000000000000000602082015250565b7f4f776e61626c653a2063616c6c6572206973206e6f7420746865206f776e6572600082015250565b7f45524332303a206275726e2066726f6d20746865207a65726f2061646472657360008201527f7300000000000000000000000000000000000000000000000000000000000000602082015250565b7f45524332303a207472616e736665722066726f6d20746865207a65726f20616460008201527f6472657373000000000000000000000000000000000000000000000000000000602082015250565b7f45524332303a20617070726f76652066726f6d20746865207a65726f2061646460008201527f7265737300000000000000000000000000000000000000000000000000000000602082015250565b7f416363657373436f6e74726f6c3a206163636f756e7420000000000000000000600082015250565b7f45524332303a2064656372656173656420616c6c6f77616e63652062656c6f7760008201527f207a65726f000000000000000000000000000000000000000000000000000000602082015250565b7f206973206d697373696e6720726f6c6520000000000000000000000000000000600082015250565b7f416363657373436f6e74726f6c3a2063616e206f6e6c792072656e6f756e636560008201527f20726f6c657320666f722073656c660000000000000000000000000000000000602082015250565b7f45524332303a206d696e7420746f20746865207a65726f206164647265737300600082015250565b6128bd8161231f565b81146128c857600080fd5b50565b6128d48161233d565b81146128df57600080fd5b50565b6128eb81612347565b81146128f657600080fd5b50565b61290281612393565b811461290d57600080fd5b5056fea2646970667358221220d96e0760c5d8820c72e4ae96c25e62c866dc315fb687a85b0151dfef087ee58164736f6c63430008040033",
  "linkReferences": {},
  "deployedLinkReferences": {}
}