{
  "_format": "hh-sol-artifact-1",
  "contractName": "CrossChain",
  "sourceName": "contracts/crosschain.sol",
  "abi": [
    {
      "inputs": [
        {
          "internalType": "address",
          "name": "metadata",
          "type": "address"
        },
        {
          "internalType": "address",
          "name": "wCKB",
          "type": "address"
        }
      ],
      "stateMutability": "nonpayable",
      "type": "constructor"
    },
    {
      "anonymous": false,
      "inputs": [
        {
          "components": [
            {
              "internalType": "address",
              "name": "to",
              "type": "address"
            },
            {
              "internalType": "address",
              "name": "tokenAddress",
              "type": "address"
            },
            {
              "internalType": "uint256",
              "name": "sUDTAmount",
              "type": "uint256"
            },
            {
              "internalType": "uint256",
              "name": "CKBAmount",
              "type": "uint256"
            },
            {
              "internalType": "bytes32",
              "name": "txHash",
              "type": "bytes32"
            }
          ],
          "indexed": false,
          "internalType": "struct DataType.CKBToAxonRecord[]",
          "name": "records",
          "type": "tuple[]"
        }
      ],
      "name": "CrossFromCKB",
      "type": "event"
    },
    {
      "anonymous": false,
      "inputs": [
        {
          "indexed": false,
          "internalType": "string",
          "name": "to",
          "type": "string"
        },
        {
          "indexed": false,
          "internalType": "address",
          "name": "token",
          "type": "address"
        },
        {
          "indexed": false,
          "internalType": "uint256",
          "name": "amount",
          "type": "uint256"
        },
        {
          "indexed": false,
          "internalType": "uint256",
          "name": "minWCKBAmount",
          "type": "uint256"
        }
      ],
      "name": "CrossToCKB",
      "type": "event"
    },
    {
      "anonymous": false,
      "inputs": [
        {
          "indexed": false,
          "internalType": "string",
          "name": "to",
          "type": "string"
        },
        {
          "indexed": false,
          "internalType": "address",
          "name": "token",
          "type": "address"
        },
        {
          "indexed": false,
          "internalType": "uint256",
          "name": "amount",
          "type": "uint256"
        },
        {
          "indexed": false,
          "internalType": "uint256",
          "name": "minWCKBAmount",
          "type": "uint256"
        }
      ],
      "name": "CrossToCKBAlert",
      "type": "event"
    },
    {
      "inputs": [],
      "name": "AT_ADDRESS",
      "outputs": [
        {
          "internalType": "address",
          "name": "",
          "type": "address"
        }
      ],
      "stateMutability": "view",
      "type": "function"
    },
    {
      "inputs": [],
      "name": "CROSS_FROM_CKB_TYPEHASH",
      "outputs": [
        {
          "internalType": "bytes32",
          "name": "",
          "type": "bytes32"
        }
      ],
      "stateMutability": "view",
      "type": "function"
    },
    {
      "inputs": [
        {
          "internalType": "address",
          "name": "token",
          "type": "address"
        },
        {
          "internalType": "bytes32",
          "name": "typehash",
          "type": "bytes32"
        }
      ],
      "name": "addMirrorToken",
      "outputs": [],
      "stateMutability": "nonpayable",
      "type": "function"
    },
    {
      "inputs": [
        {
          "internalType": "address",
          "name": "token",
          "type": "address"
        },
        {
          "internalType": "bytes32",
          "name": "typehash",
          "type": "bytes32"
        }
      ],
      "name": "addToken",
      "outputs": [],
      "stateMutability": "nonpayable",
      "type": "function"
    },
    {
      "inputs": [
        {
          "components": [
            {
              "internalType": "address",
              "name": "to",
              "type": "address"
            },
            {
              "internalType": "address",
              "name": "tokenAddress",
              "type": "address"
            },
            {
              "internalType": "uint256",
              "name": "sUDTAmount",
              "type": "uint256"
            },
            {
              "internalType": "uint256",
              "name": "CKBAmount",
              "type": "uint256"
            },
            {
              "internalType": "bytes32",
              "name": "txHash",
              "type": "bytes32"
            }
          ],
          "internalType": "struct DataType.CKBToAxonRecord[]",
          "name": "records",
          "type": "tuple[]"
        },
        {
          "internalType": "uint256",
          "name": "nonce",
          "type": "uint256"
        }
      ],
      "name": "crossFromCKB",
      "outputs": [],
      "stateMutability": "nonpayable",
      "type": "function"
    },
    {
      "inputs": [
        {
          "internalType": "string",
          "name": "to",
          "type": "string"
        },
        {
          "internalType": "address",
          "name": "token",
          "type": "address"
        },
        {
          "internalType": "uint256",
          "name": "amount",
          "type": "uint256"
        }
      ],
      "name": "crossTokenToCKB",
      "outputs": [],
      "stateMutability": "nonpayable",
      "type": "function"
    },
    {
      "inputs": [
        {
          "internalType": "address",
          "name": "token",
          "type": "address"
        },
        {
          "internalType": "uint256",
          "name": "value",
          "type": "uint256"
        }
      ],
      "name": "fee",
      "outputs": [
        {
          "internalType": "uint256",
          "name": "",
          "type": "uint256"
        }
      ],
      "stateMutability": "view",
      "type": "function"
    },
    {
      "inputs": [
        {
          "internalType": "bytes32",
          "name": "typehash",
          "type": "bytes32"
        }
      ],
      "name": "getTokenAddress",
      "outputs": [
        {
          "internalType": "address",
          "name": "",
          "type": "address"
        }
      ],
      "stateMutability": "view",
      "type": "function"
    },
    {
      "inputs": [
        {
          "internalType": "address",
          "name": "token",
          "type": "address"
        }
      ],
      "name": "getTypehash",
      "outputs": [
        {
          "internalType": "bytes32",
          "name": "",
          "type": "bytes32"
        }
      ],
      "stateMutability": "view",
      "type": "function"
    },
    {
      "inputs": [
        {
          "internalType": "address",
          "name": "token",
          "type": "address"
        }
      ],
      "name": "isMirrorToken",
      "outputs": [
        {
          "internalType": "bool",
          "name": "",
          "type": "bool"
        }
      ],
      "stateMutability": "view",
      "type": "function"
    },
    {
      "inputs": [],
      "name": "limitTxes",
      "outputs": [
        {
          "components": [
            {
              "internalType": "address",
              "name": "tokenAddress",
              "type": "address"
            },
            {
              "internalType": "uint256",
              "name": "amount",
              "type": "uint256"
            },
            {
              "internalType": "uint256",
              "name": "minWCKBAmount",
              "type": "uint256"
            },
            {
              "internalType": "string",
              "name": "to",
              "type": "string"
            }
          ],
          "internalType": "struct DataType.AxonToCKBRecord[]",
          "name": "",
          "type": "tuple[]"
        }
      ],
      "stateMutability": "view",
      "type": "function"
    },
    {
      "inputs": [
        {
          "internalType": "string",
          "name": "to",
          "type": "string"
        }
      ],
      "name": "lockAT",
      "outputs": [],
      "stateMutability": "payable",
      "type": "function"
    },
    {
      "inputs": [
        {
          "components": [
            {
              "internalType": "address",
              "name": "tokenAddress",
              "type": "address"
            },
            {
              "internalType": "uint256",
              "name": "amount",
              "type": "uint256"
            },
            {
              "internalType": "uint256",
              "name": "minWCKBAmount",
              "type": "uint256"
            },
            {
              "internalType": "string",
              "name": "to",
              "type": "string"
            }
          ],
          "internalType": "struct DataType.AxonToCKBRecord",
          "name": "record",
          "type": "tuple"
        }
      ],
      "name": "removeLimitTx",
      "outputs": [],
      "stateMutability": "nonpayable",
      "type": "function"
    },
    {
      "inputs": [
        {
          "internalType": "address",
          "name": "token",
          "type": "address"
        },
        {
          "components": [
            {
              "internalType": "uint256",
              "name": "feeRatio",
              "type": "uint256"
            },
            {
              "internalType": "uint256",
              "name": "threshold",
              "type": "uint256"
            }
          ],
          "internalType": "struct DataType.TokenConfig",
          "name": "config",
          "type": "tuple"
        }
      ],
      "name": "setTokenConfig",
      "outputs": [],
      "stateMutability": "nonpayable",
      "type": "function"
    },
    {
      "inputs": [
        {
          "internalType": "uint256",
          "name": "amount",
          "type": "uint256"
        }
      ],
      "name": "setWCKBMin",
      "outputs": [],
      "stateMutability": "nonpayable",
      "type": "function"
    }
  ],
  "bytecode": "0x60a060405267ffffffffffffffff6000553480156200001d57600080fd5b50604051620032b2380380620032b283398181016040528101906200004391906200024b565b81600260006101000a81548173ffffffffffffffffffffffffffffffffffffffff021916908373ffffffffffffffffffffffffffffffffffffffff16021790555080600360006101000a81548173ffffffffffffffffffffffffffffffffffffffff021916908373ffffffffffffffffffffffffffffffffffffffff160217905550620000fc600360009054906101000a900473ffffffffffffffffffffffffffffffffffffffff166000801b6200012c60201b60201c565b7fb6122876d2c7493155dc06339cfc797e94607edcc9b34fc1141c1d4029865a32608081815250505050620002da565b6001600b60008473ffffffffffffffffffffffffffffffffffffffff1673ffffffffffffffffffffffffffffffffffffffff16815260200190815260200160002060006101000a81548160ff0219169083151502179055506200019682826200019a60201b60201c565b5050565b81600d600083815260200190815260200160002060006101000a81548173ffffffffffffffffffffffffffffffffffffffff021916908373ffffffffffffffffffffffffffffffffffffffff16021790555080600c60008473ffffffffffffffffffffffffffffffffffffffff1673ffffffffffffffffffffffffffffffffffffffff168152602001908152602001600020819055505050565b6000815190506200024581620002c0565b92915050565b600080604083850312156200025f57600080fd5b60006200026f8582860162000234565b9250506020620002828582860162000234565b9150509250929050565b60006200029982620002a0565b9050919050565b600073ffffffffffffffffffffffffffffffffffffffff82169050919050565b620002cb816200028c565b8114620002d757600080fd5b50565b608051612fbc620002f660003960006113a00152612fbc6000f3fe6080604052600436106100e85760003560e01c8063b12e44101161008a578063cb6ebb9b11610059578063cb6ebb9b146102dc578063cb8c16ea14610319578063db2b749f14610344578063e6c8283e14610360576100e8565b8063b12e441014610222578063b8f564f81461025f578063bf56fbd014610288578063c0c1eebc146102b3576100e8565b80636b23fd20116100c65780636b23fd201461016a5780639e6eda1814610193578063a01fc87f146101d0578063a938d745146101f9576100e8565b80633edfdbb0146100ed578063540f6dec1461011657806365744d2414610141575b600080fd5b3480156100f957600080fd5b50610114600480360381019061010f919061216f565b61039d565b005b34801561012257600080fd5b5061012b6104e3565b60405161013891906127b0565b60405180910390f35b34801561014d57600080fd5b5061016860048036038101906101639190612133565b6104e8565b005b34801561017657600080fd5b50610191600480360381019061018c91906121e7565b6105e9565b005b34801561019f57600080fd5b506101ba60048036038101906101b591906121ab565b610812565b6040516101c79190612995565b60405180910390f35b3480156101dc57600080fd5b506101f760048036038101906101f29190612339565b610883565b005b34801561020557600080fd5b50610220600480360381019061021b91906123a3565b610a36565b005b34801561022e57600080fd5b5061024960048036038101906102449190612268565b610b33565b60405161025691906127b0565b60405180910390f35b34801561026b57600080fd5b50610286600480360381019061028191906122d2565b610b70565b005b34801561029457600080fd5b5061029d610fea565b6040516102aa919061282b565b60405180910390f35b3480156102bf57600080fd5b506102da60048036038101906102d59190612133565b611247565b005b3480156102e857600080fd5b5061030360048036038101906102fe919061210a565b611348565b6040516103109190612871565b60405180910390f35b34801561032557600080fd5b5061032e61139e565b60405161033b919061288c565b60405180910390f35b61035e60048036038101906103599190612291565b6113c2565b005b34801561036c57600080fd5b506103876004803603810190610382919061210a565b6115c3565b604051610394919061288c565b60405180910390f35b600260009054906101000a900473ffffffffffffffffffffffffffffffffffffffff1673ffffffffffffffffffffffffffffffffffffffff1663331052186103e361160c565b6040518263ffffffff1660e01b81526004016103ff91906127b0565b602060405180830381600087803b15801561041957600080fd5b505af115801561042d573d6000803e3d6000fd5b505050506040513d601f19601f82011682018060405250810190610451919061223f565b610490576040517f08c379a000000000000000000000000000000000000000000000000000000000815260040161048790612933565b60405180910390fd5b80600a60008473ffffffffffffffffffffffffffffffffffffffff1673ffffffffffffffffffffffffffffffffffffffff16815260200190815260200160002081816104dc9190612ef9565b9050505050565b600081565b600260009054906101000a900473ffffffffffffffffffffffffffffffffffffffff1673ffffffffffffffffffffffffffffffffffffffff16633310521861052e61160c565b6040518263ffffffff1660e01b815260040161054a91906127b0565b602060405180830381600087803b15801561056457600080fd5b505af1158015610578573d6000803e3d6000fd5b505050506040513d601f19601f8201168201806040525081019061059c919061223f565b6105db576040517f08c379a00000000000000000000000000000000000000000000000000000000081526004016105d290612933565b60405180910390fd5b6105e58282611614565b5050565b600260009054906101000a900473ffffffffffffffffffffffffffffffffffffffff1673ffffffffffffffffffffffffffffffffffffffff16633310521861062f61160c565b6040518263ffffffff1660e01b815260040161064b91906127b0565b602060405180830381600087803b15801561066557600080fd5b505af1158015610679573d6000803e3d6000fd5b505050506040513d601f19601f8201168201806040525081019061069d919061223f565b6106dc576040517f08c379a00000000000000000000000000000000000000000000000000000000081526004016106d390612933565b60405180910390fd5b600083839050905060005b818110156107d257600085858381811061072a577f4e487b7100000000000000000000000000000000000000000000000000000000600052603260045260246000fd5b905060a00201803603810190610740919061237a565b90506000816040015114801561075a575060008160600151145b1561076557506107c1565b61076e8161167a565b600073ffffffffffffffffffffffffffffffffffffffff16816020015173ffffffffffffffffffffffffffffffffffffffff1614156107b5576107b081611727565b6107bf565b6107be8161178c565b5b505b806107cb90612c67565b90506106e7565b507f3e364b471f5bb448a1efc0c6198566fd886f0d3f866c6896c0d0cffebd452e42848460405161080492919061284d565b60405180910390a150505050565b600080600a60008573ffffffffffffffffffffffffffffffffffffffff1673ffffffffffffffffffffffffffffffffffffffff168152602001908152602001600020604051806040016040529081600082015481526020016001820154815250509050806000015191505092915050565b600260009054906101000a900473ffffffffffffffffffffffffffffffffffffffff1673ffffffffffffffffffffffffffffffffffffffff1663331052186108c961160c565b6040518263ffffffff1660e01b81526004016108e591906127b0565b602060405180830381600087803b1580156108ff57600080fd5b505af1158015610913573d6000803e3d6000fd5b505050506040513d601f19601f82011682018060405250810190610937919061223f565b610976576040517f08c379a000000000000000000000000000000000000000000000000000000000815260040161096d90612933565b60405180910390fd5b6000816040516020016109899190612973565b6040516020818303038152906040528051906020012090506109b58160066118cd90919063ffffffff16565b6109bf5750610a33565b6109d38160066118e490919063ffffffff16565b5060086000828152602001908152602001600020600080820160006101000a81549073ffffffffffffffffffffffffffffffffffffffff021916905560018201600090556002820160009055600382016000610a2f9190611d9f565b5050505b50565b600260009054906101000a900473ffffffffffffffffffffffffffffffffffffffff1673ffffffffffffffffffffffffffffffffffffffff166333105218610a7c61160c565b6040518263ffffffff1660e01b8152600401610a9891906127b0565b602060405180830381600087803b158015610ab257600080fd5b505af1158015610ac6573d6000803e3d6000fd5b505050506040513d601f19601f82011682018060405250810190610aea919061223f565b610b29576040517f08c379a0000000000000000000000000000000000000000000000000000000008152600401610b2090612933565b60405180910390fd5b8060048190555050565b6000600d600083815260200190815260200160002060009054906101000a900473ffffffffffffffffffffffffffffffffffffffff169050919050565b60008111610bb3576040517f08c379a0000000000000000000000000000000000000000000000000000000008152600401610baa906128f3565b60405180910390fd5b600454600360009054906101000a900473ffffffffffffffffffffffffffffffffffffffff1673ffffffffffffffffffffffffffffffffffffffff166370a08231610bfc61160c565b6040518263ffffffff1660e01b8152600401610c1891906127b0565b60206040518083038186803b158015610c3057600080fd5b505afa158015610c44573d6000803e3d6000fd5b505050506040513d601f19601f82011682018060405250810190610c6891906123cc565b11610ca8576040517f08c379a0000000000000000000000000000000000000000000000000000000008152600401610c9f90612953565b60405180910390fd5b610cb182611348565b15610d9657600360009054906101000a900473ffffffffffffffffffffffffffffffffffffffff1673ffffffffffffffffffffffffffffffffffffffff168273ffffffffffffffffffffffffffffffffffffffff161415610d1d5760045481610d1a9190612ae4565b90505b8173ffffffffffffffffffffffffffffffffffffffff16639dc29fac610d4161160c565b836040518363ffffffff1660e01b8152600401610d5f929190612802565b600060405180830381600087803b158015610d7957600080fd5b505af1158015610d8d573d6000803e3d6000fd5b50505050610e2e565b8173ffffffffffffffffffffffffffffffffffffffff166323b872dd610dba61160c565b30846040518463ffffffff1660e01b8152600401610dda939291906127cb565b602060405180830381600087803b158015610df457600080fd5b505af1158015610e08573d6000803e3d6000fd5b505050506040513d601f19601f82011682018060405250810190610e2c919061223f565b505b600360009054906101000a900473ffffffffffffffffffffffffffffffffffffffff1673ffffffffffffffffffffffffffffffffffffffff166323b872dd610e7461160c565b306004546040518463ffffffff1660e01b8152600401610e96939291906127cb565b602060405180830381600087803b158015610eb057600080fd5b505af1158015610ec4573d6000803e3d6000fd5b505050506040513d601f19601f82011682018060405250810190610ee8919061223f565b50610ef382826118fb565b15610fa557610f00611ddf565b83816060018190525082816000019073ffffffffffffffffffffffffffffffffffffffff16908173ffffffffffffffffffffffffffffffffffffffff168152505081816020018181525050600454816040018181525050610f608161194b565b7f94625b0a2dd0ef3e6dabbf52be47159b47cbd3ac7efb51b7a8d363a540c00bbe848484600454604051610f9794939291906128a7565b60405180910390a150610fe5565b7fb3f8ed69a3b49c0460199974be11a2a9852ad17addee34ac9c7274e1164022e0838383600454604051610fdc94939291906128a7565b60405180910390a15b505050565b60606000610ff86006611a3e565b67ffffffffffffffff811115611037577f4e487b7100000000000000000000000000000000000000000000000000000000600052604160045260246000fd5b60405190808252806020026020018201604052801561107057816020015b61105d611ddf565b8152602001906001900390816110555790505b509050600061107f6006611a53565b905060005b815181101561123e57600860008383815181106110ca577f4e487b7100000000000000000000000000000000000000000000000000000000600052603260045260246000fd5b602002602001015181526020019081526020016000206040518060800160405290816000820160009054906101000a900473ffffffffffffffffffffffffffffffffffffffff1673ffffffffffffffffffffffffffffffffffffffff1673ffffffffffffffffffffffffffffffffffffffff168152602001600182015481526020016002820154815260200160038201805461116590612c04565b80601f016020809104026020016040519081016040528092919081815260200182805461119190612c04565b80156111de5780601f106111b3576101008083540402835291602001916111de565b820191906000526020600020905b8154815290600101906020018083116111c157829003601f168201915b505050505081525050838281518110611220577f4e487b7100000000000000000000000000000000000000000000000000000000600052603260045260246000fd5b6020026020010181905250808061123690612c67565b915050611084565b50819250505090565b600260009054906101000a900473ffffffffffffffffffffffffffffffffffffffff1673ffffffffffffffffffffffffffffffffffffffff16633310521861128d61160c565b6040518263ffffffff1660e01b81526004016112a991906127b0565b602060405180830381600087803b1580156112c357600080fd5b505af11580156112d7573d6000803e3d6000fd5b505050506040513d601f19601f820116820180604052508101906112fb919061223f565b61133a576040517f08c379a000000000000000000000000000000000000000000000000000000000815260040161133190612933565b60405180910390fd5b6113448282611a68565b5050565b6000600b60008373ffffffffffffffffffffffffffffffffffffffff1673ffffffffffffffffffffffffffffffffffffffff16815260200190815260200160002060009054906101000a900460ff169050919050565b7f000000000000000000000000000000000000000000000000000000000000000081565b60003411611405576040517f08c379a00000000000000000000000000000000000000000000000000000000081526004016113fc90612913565b60405180910390fd5b600360009054906101000a900473ffffffffffffffffffffffffffffffffffffffff1673ffffffffffffffffffffffffffffffffffffffff166323b872dd61144b61160c565b306004546040518463ffffffff1660e01b815260040161146d939291906127cb565b602060405180830381600087803b15801561148757600080fd5b505af115801561149b573d6000803e3d6000fd5b505050506040513d601f19601f820116820180604052508101906114bf919061223f565b506114cb6000346118fb565b1561157f576114d8611ddf565b8181606001819052506000816000019073ffffffffffffffffffffffffffffffffffffffff16908173ffffffffffffffffffffffffffffffffffffffff1681525050348160200181815250506004548160400181815250506115398161194b565b7f94625b0a2dd0ef3e6dabbf52be47159b47cbd3ac7efb51b7a8d363a540c00bbe8260003460045460405161157194939291906128a7565b60405180910390a1506115c0565b7fb3f8ed69a3b49c0460199974be11a2a9852ad17addee34ac9c7274e1164022e0816000346004546040516115b794939291906128a7565b60405180910390a15b50565b6000600c60008373ffffffffffffffffffffffffffffffffffffffff1673ffffffffffffffffffffffffffffffffffffffff168152602001908152602001600020549050919050565b600033905090565b6001600b60008473ffffffffffffffffffffffffffffffffffffffff1673ffffffffffffffffffffffffffffffffffffffff16815260200190815260200160002060006101000a81548160ff0219169083151502179055506116768282611a68565b5050565b60008160600151141561168c57611724565b600360009054906101000a900473ffffffffffffffffffffffffffffffffffffffff1673ffffffffffffffffffffffffffffffffffffffff166340c10f19826000015183606001516040518363ffffffff1660e01b81526004016116f1929190612802565b600060405180830381600087803b15801561170b57600080fd5b505af115801561171f573d6000803e3d6000fd5b505050505b50565b60008160400151141561173957611789565b806000015173ffffffffffffffffffffffffffffffffffffffff166108fc82604001519081150290604051600060405180830381858888f19350505050158015611787573d6000803e3d6000fd5b505b50565b60008160400151141561179e576118ca565b6117ab8160200151611348565b1561182e57806020015173ffffffffffffffffffffffffffffffffffffffff166340c10f19826000015183604001516040518363ffffffff1660e01b81526004016117f7929190612802565b600060405180830381600087803b15801561181157600080fd5b505af1158015611825573d6000803e3d6000fd5b505050506118c9565b806020015173ffffffffffffffffffffffffffffffffffffffff1663a9059cbb826000015183604001516040518363ffffffff1660e01b8152600401611875929190612802565b602060405180830381600087803b15801561188f57600080fd5b505af11580156118a3573d6000803e3d6000fd5b505050506040513d601f19601f820116820180604052508101906118c7919061223f565b505b5b50565b60006118dc8360000183611b02565b905092915050565b60006118f38360000183611b25565b905092915050565b600081600a60008573ffffffffffffffffffffffffffffffffffffffff1673ffffffffffffffffffffffffffffffffffffffff168152602001908152602001600020600101541115905092915050565b60008160405160200161195e9190612973565b60405160208183030381529060405280519060200120905061198a8160066118cd90919063ffffffff16565b156119955750611a3b565b6119a9816006611cab90919063ffffffff16565b50816008600083815260200190815260200160002060008201518160000160006101000a81548173ffffffffffffffffffffffffffffffffffffffff021916908373ffffffffffffffffffffffffffffffffffffffff16021790555060208201518160010155604082015181600201556060820151816003019080519060200190611a35929190611e1d565b50905050505b50565b6000611a4c82600001611cc2565b9050919050565b6060611a6182600001611cd3565b9050919050565b81600d600083815260200190815260200160002060006101000a81548173ffffffffffffffffffffffffffffffffffffffff021916908373ffffffffffffffffffffffffffffffffffffffff16021790555080600c60008473ffffffffffffffffffffffffffffffffffffffff1673ffffffffffffffffffffffffffffffffffffffff168152602001908152602001600020819055505050565b600080836001016000848152602001908152602001600020541415905092915050565b60008083600101600084815260200190815260200160002054905060008114611c9f576000600182611b579190612ae4565b9050600060018660000180549050611b6f9190612ae4565b9050818114611c2a576000866000018281548110611bb6577f4e487b7100000000000000000000000000000000000000000000000000000000600052603260045260246000fd5b9060005260206000200154905080876000018481548110611c00577f4e487b7100000000000000000000000000000000000000000000000000000000600052603260045260246000fd5b90600052602060002001819055508387600101600083815260200190815260200160002081905550505b85600001805480611c64577f4e487b7100000000000000000000000000000000000000000000000000000000600052603160045260246000fd5b600190038181906000526020600020016000905590558560010160008681526020019081526020016000206000905560019350505050611ca5565b60009150505b92915050565b6000611cba8360000183611d2f565b905092915050565b600081600001805490509050919050565b606081600001805480602002602001604051908101604052809291908181526020018280548015611d2357602002820191906000526020600020905b815481526020019060010190808311611d0f575b50505050509050919050565b6000611d3b8383611b02565b611d94578260000182908060018154018082558091505060019003906000526020600020016000909190919091505582600001805490508360010160008481526020019081526020016000208190555060019050611d99565b600090505b92915050565b508054611dab90612c04565b6000825580601f10611dbd5750611ddc565b601f016020900490600052602060002090810190611ddb9190611ea3565b5b50565b6040518060800160405280600073ffffffffffffffffffffffffffffffffffffffff1681526020016000815260200160008152602001606081525090565b828054611e2990612c04565b90600052602060002090601f016020900481019282611e4b5760008555611e92565b82601f10611e6457805160ff1916838001178555611e92565b82800160010185558215611e92579182015b82811115611e91578251825591602001919060010190611e76565b5b509050611e9f9190611ea3565b5090565b5b80821115611ebc576000816000905550600101611ea4565b5090565b6000611ed3611ece846129d5565b6129b0565b905082815260208101848484011115611eeb57600080fd5b611ef6848285612b7c565b509392505050565b600081359050611f0d81612f2a565b92915050565b60008083601f840112611f2557600080fd5b8235905067ffffffffffffffff811115611f3e57600080fd5b6020830191508360a0820283011115611f5657600080fd5b9250929050565b600081519050611f6c81612f41565b92915050565b600081359050611f8181612f58565b92915050565b600082601f830112611f9857600080fd5b8135611fa8848260208601611ec0565b91505092915050565b600060808284031215611fc357600080fd5b611fcd60806129b0565b90506000611fdd84828501611efe565b6000830152506020611ff1848285016120e0565b6020830152506040612005848285016120e0565b604083015250606082013567ffffffffffffffff81111561202557600080fd5b61203184828501611f87565b60608301525092915050565b600060a0828403121561204f57600080fd5b61205960a06129b0565b9050600061206984828501611efe565b600083015250602061207d84828501611efe565b6020830152506040612091848285016120e0565b60408301525060606120a5848285016120e0565b60608301525060806120b984828501611f72565b60808301525092915050565b6000604082840312156120d757600080fd5b81905092915050565b6000813590506120ef81612f6f565b92915050565b60008151905061210481612f6f565b92915050565b60006020828403121561211c57600080fd5b600061212a84828501611efe565b91505092915050565b6000806040838503121561214657600080fd5b600061215485828601611efe565b925050602061216585828601611f72565b9150509250929050565b6000806060838503121561218257600080fd5b600061219085828601611efe565b92505060206121a1858286016120c5565b9150509250929050565b600080604083850312156121be57600080fd5b60006121cc85828601611efe565b92505060206121dd858286016120e0565b9150509250929050565b6000806000604084860312156121fc57600080fd5b600084013567ffffffffffffffff81111561221657600080fd5b61222286828701611f13565b93509350506020612235868287016120e0565b9150509250925092565b60006020828403121561225157600080fd5b600061225f84828501611f5d565b91505092915050565b60006020828403121561227a57600080fd5b600061228884828501611f72565b91505092915050565b6000602082840312156122a357600080fd5b600082013567ffffffffffffffff8111156122bd57600080fd5b6122c984828501611f87565b91505092915050565b6000806000606084860312156122e757600080fd5b600084013567ffffffffffffffff81111561230157600080fd5b61230d86828701611f87565b935050602061231e86828701611efe565b925050604061232f868287016120e0565b9150509250925092565b60006020828403121561234b57600080fd5b600082013567ffffffffffffffff81111561236557600080fd5b61237184828501611fb1565b91505092915050565b600060a0828403121561238c57600080fd5b600061239a8482850161203d565b91505092915050565b6000602082840312156123b557600080fd5b60006123c3848285016120e0565b91505092915050565b6000602082840312156123de57600080fd5b60006123ec848285016120f5565b91505092915050565b6000612401838361263c565b905092915050565b60006124158383612702565b60a08301905092915050565b61242a81612b18565b82525050565b61243981612b18565b82525050565b600061244a82612a20565b6124548185612a50565b93508360208202850161246685612a06565b8060005b858110156124a2578484038952815161248385826123f5565b945061248e83612a36565b925060208a0199505060018101905061246a565b50829750879550505050505092915050565b60006124c08385612a61565b93506124cb82612a16565b8060005b85811015612504576124e18284612ac2565b6124eb8882612409565b97506124f683612a43565b9250506001810190506124cf565b5085925050509392505050565b61251a81612b2a565b82525050565b61252981612b36565b82525050565b61253881612b36565b82525050565b600061254982612a2b565b6125538185612a72565b9350612563818560208601612b8b565b61256c81612d5d565b840191505092915050565b600061258282612a2b565b61258c8185612a83565b935061259c818560208601612b8b565b6125a581612d5d565b840191505092915050565b60006125bd602683612a83565b91506125c882612d7b565b604082019050919050565b60006125e0602583612a83565b91506125eb82612dca565b604082019050919050565b6000612603602383612a83565b915061260e82612e19565b604082019050919050565b6000612626602a83612a83565b915061263182612e68565b604082019050919050565b60006080830160008301516126546000860182612421565b5060208301516126676020860182612792565b50604083015161267a6040860182612792565b5060608301518482036060860152612692828261253e565b9150508091505092915050565b60006080830160008301516126b76000860182612421565b5060208301516126ca6020860182612792565b5060408301516126dd6040860182612792565b50606083015184820360608601526126f5828261253e565b9150508091505092915050565b60a082016127136000830183612a94565b6127206000850182612421565b5061272e6020830183612a94565b61273b6020850182612421565b506127496040830183612acd565b6127566040850182612792565b506127646060830183612acd565b6127716060850182612792565b5061277f6080830183612aab565b61278c6080850182612520565b50505050565b61279b81612b60565b82525050565b6127aa81612b60565b82525050565b60006020820190506127c56000830184612430565b92915050565b60006060820190506127e06000830186612430565b6127ed6020830185612430565b6127fa60408301846127a1565b949350505050565b60006040820190506128176000830185612430565b61282460208301846127a1565b9392505050565b60006020820190508181036000830152612845818461243f565b905092915050565b600060208201905081810360008301526128688184866124b4565b90509392505050565b60006020820190506128866000830184612511565b92915050565b60006020820190506128a1600083018461252f565b92915050565b600060808201905081810360008301526128c18187612577565b90506128d06020830186612430565b6128dd60408301856127a1565b6128ea60608301846127a1565b95945050505050565b6000602082019050818103600083015261290c816125b0565b9050919050565b6000602082019050818103600083015261292c816125d3565b9050919050565b6000602082019050818103600083015261294c816125f6565b9050919050565b6000602082019050818103600083015261296c81612619565b9050919050565b6000602082019050818103600083015261298d818461269f565b905092915050565b60006020820190506129aa60008301846127a1565b92915050565b60006129ba6129cb565b90506129c68282612c36565b919050565b6000604051905090565b600067ffffffffffffffff8211156129f0576129ef612d0e565b5b6129f982612d5d565b9050602081019050919050565b6000819050602082019050919050565b6000819050919050565b600081519050919050565b600081519050919050565b6000602082019050919050565b600060a082019050919050565b600082825260208201905092915050565b600082825260208201905092915050565b600082825260208201905092915050565b600082825260208201905092915050565b6000612aa36020840184611efe565b905092915050565b6000612aba6020840184611f72565b905092915050565b600082905092915050565b6000612adc60208401846120e0565b905092915050565b6000612aef82612b60565b9150612afa83612b60565b925082821015612b0d57612b0c612cb0565b5b828203905092915050565b6000612b2382612b40565b9050919050565b60008115159050919050565b6000819050919050565b600073ffffffffffffffffffffffffffffffffffffffff82169050919050565b6000819050919050565b6000612b7582612b60565b9050919050565b82818337600083830152505050565b60005b83811015612ba9578082015181840152602081019050612b8e565b83811115612bb8576000848401525b50505050565b600081016000830180612bd081612d47565b9050612bdc8184612f07565b505050600181016020830180612bf181612d47565b9050612bfd8184612f07565b5050505050565b60006002820490506001821680612c1c57607f821691505b60208210811415612c3057612c2f612cdf565b5b50919050565b612c3f82612d5d565b810181811067ffffffffffffffff82111715612c5e57612c5d612d0e565b5b80604052505050565b6000612c7282612b60565b91507fffffffffffffffffffffffffffffffffffffffffffffffffffffffffffffffff821415612ca557612ca4612cb0565b5b600182019050919050565b7f4e487b7100000000000000000000000000000000000000000000000000000000600052601160045260246000fd5b7f4e487b7100000000000000000000000000000000000000000000000000000000600052602260045260246000fd5b7f4e487b7100000000000000000000000000000000000000000000000000000000600052604160045260246000fd5b6000819050919050565b60008135612d5481612f6f565b80915050919050565b6000601f19601f8301169050919050565b60008160001b9050919050565b7f43726f7373436861696e3a20616d6f756e74206d757374206265206d6f72652060008201527f7468616e20300000000000000000000000000000000000000000000000000000602082015250565b7f43726f7373436861696e3a2076616c7565206d757374206265206d6f7265207460008201527f68616e2030000000000000000000000000000000000000000000000000000000602082015250565b7f43726f7373436861696e3a2073656e646572206d75737420626520766572696660008201527f6965720000000000000000000000000000000000000000000000000000000000602082015250565b7f43726f7373436861696e3a20616d6f756e74206f662077636b6220697320696e60008201527f73756666696369656e7400000000000000000000000000000000000000000000602082015250565b60007fffffffffffffffffffffffffffffffffffffffffffffffffffffffffffffffff612ee384612d6e565b9350801983169250808416831791505092915050565b612f038282612bbe565b5050565b612f1082612b6a565b612f23612f1c82612d3d565b8354612eb7565b8255505050565b612f3381612b18565b8114612f3e57600080fd5b50565b612f4a81612b2a565b8114612f5557600080fd5b50565b612f6181612b36565b8114612f6c57600080fd5b50565b612f7881612b60565b8114612f8357600080fd5b5056fea264697066735822122029e7572897d4f756a1749a51c3546c16d2d7abd1f311f42d2a8f69a18d029b2864736f6c63430008040033",
  "linkReferences": {},
  "deployedLinkReferences": {}
}